S01700004D616C695F526F626F745F323031352E73726563FE
S113000049C0000066C0000064C0000062C0000077
S113001060C000005EC000005CC000005AC0000068
S113002058C0000056C0000054C0000052C0000078
S11300300C9487194EC000004CC000004AC0000058
S113004048C0000046C00000BAC6000042C000001C
S113005040C000000C947F1B3CC000000C943E1B6D
S113006038C0000036C0000034C0000032C00000B8
S113007030C000002EC000002CC000002AC00000C8
S11300800C94081C26C000000C94C71B22C000005E
S113009020C0000011241FBECFEFD0E1DEBFCDBFD2
S11300A012E0A0E0B1E0E4E3FAE400E00BBF02C038
S11300B007900D92AA31B107D9F713E0AAE1B2E093
S11300C001C01D92AB37B107E1F70E94F90E0C9401
S11300D0182596CFAEE5B0E0E0E7F0E00C94BB2342
S11300E0A8E04E010894811C911CF4016A2E11921F
S11300F06A94E9F729833A834B835C836D837E8317
S11301008F839887CE010996FC011192AA95E9F78D
S1130110A986BA86CB86DC86ED86FE860F87188B89
S113012029843A844B845C84ED84FE840F85188989
S113013069807A808B809C806DA67EA68FA698AA03
S11301406D807E808F809884E114F104010511058F
S113015009F0B3C3621473048404950408F03DC128
S113016000E0201600E0300601E0400600E0500602
S113017088F41FEF211631044104510439F030F0A2
S113018048E0E42EF12C012D112D18C0EE24FF249B
S1130190870114C020E0221620E0320620E0420647
S11301A021E0520630F038E1E32EF12C012D112D1F
S11301B005C020E1E22EF12C012D112DD201C10147
S11301C00E2C04C0B695A795979587950A94D2F7F7
S11301D080509F4FDC012C9180E290E0A0E0B0E0E1
S11301E08E199F09A00BB10B7C018D01E21AF10855
S11301F001091109E114F10401051105A1F10E2C05
S113020004C0220C331C441C551C0A94D2F7A401CC
S113021093010E2C04C0220F331F441F551F0A9450
S1130220D2F780E290E08E199F096DA47EA48FA47A
S113023098A804C096948794779467948A95D2F783
S1130240622A732A842A952AADA4BEA4CFA4D8A86E
S113025004C0AA0CBB1CCC1CDD1CEA94D2F7ADA6CE
S1130260BEA6CFA6D8AA6201EE24FF24CDAADEAA98
S1130270EFAAF8AE920181012070307009AF1AAF75
S11302802BAF3CAFC401B301A70196010E9499238F
S11302907B018C01C401B3012DA93EA94FA958AD1E
S11302A00E949923C901DA013C014D01C401B30143
S11302B029AD3AAD4BAD5CAD0E947A239B01AC01F4
S11302C08701FF24EE24ADA4BEA4CFA4D8A8C60100
S11302D0AA27BB2757016801A82AB92ACA2ADB2AF8
S11302E0A216B306C406D506E0F4089461087108A2
S11302F081089108A20CB31CC41CD51CA214B3041D
S1130300C404D50470F0A216B306C406D50648F496
S113031008946108710881089108A20CB31CC41CDC
S1130320D51CA21AB30AC40AD50AC601B5012DA95F
S11303303EA94FA958AD0E9499237B018C01C601A7
S1130340B5012DA93EA94FA958AD0E949923C90111
S1130350DA015C016D01C601B50129AD3AAD4BADC1
S11303605CAD0E947A239B01AC018701FF24EE243B
S11303708DA59EA5AFA5B8A9A070B070E82AF92AEA
S11303800A2B1B2BE216F30604071507C0F4089486
S1130390A108B108C108D108E20CF31C041D151D05
S11303A0E214F3040405150550F0E216F3060407FD
S11303B0150728F40894A108B108C108D108D3018D
S11303C09927882786017501E82AF92A0A2B1B2B0D
S11303D0E9AAFAAA0BAB1CABCFC421143104410423
S11303E0510471F461E070E080E090E020E030E0DE
S11303F040E050E00E949923C901DA011C012D015B
S113040000E0201600E0300601E0400600E050065F
S113041088F41FEF211631044104510431F028F00F
S113042048E050E060E070E017C040E050E060E079
S113043070E012C020E0221620E0320620E04206DE
S113044021E0520628F048E150E060E070E004C08A
S113045040E150E060E070E0D201C101042E04C02C
S1130460B695A795979587950A94D2F780509F4F94
S1130470DC012C91E0E2EE2EF12C012D112DD8019E
S1130480C701841B950BA60BB70B821B9109A1090D
S1130490B1090097A105B10561F464015301A218E3
S11304A0B308C408D50831E0632E712C812C912C3B
S11304B01EC16F968FAF6F97082E04C0220C331C99
S11304C0441C551C0A94D2F7EE2DE81B6401530119
S11304D00E2E04C0D694C794B794A7940A94D2F766
S11304E0A40193016F960FAC6F9704C0220F331FC2
S11304F0441F551F0A94D2F76DA47EA48FA498A814
S11305000E2E04C096948794779467940A94D2F735
S113051084017301E22AF32A042B152BE9A6FAA617
S11305200BA71CA732018824992492018101207011
S1130530307021960CAF1DAF2EAF3FAF2197C6018F
S1130540B501A40193010E9499237B018C01C6018A
S1130550B501A40193010E949923C901DA012596EA
S11305608CAF9DAFAEAFBFAF2597BC01CD01219637
S11305702CAD3DAD4EAD5FAD21970E947A239B011A
S1130580AC018701FF24EE24A9A4BAA4CBA4DCA463
S1130590C601AA27BB275C016D01AE28BF28C02A6B
S11305A0D12AA216B306C406D50660F525966CAD0D
S11305B07DAD8EAD9FAD25976150704080409040D9
S11305C025966CAF7DAF8EAF9FAF2597A20CB31C61
S11305D0C41CD51CA214B304C404D50498F0A216F8
S11305E0B306C406D50670F4615070408040904054
S11305F025966CAF7DAF8EAF9FAF2597A20CB31C31
S1130600C41CD51CA21AB30AC40AD50AC601B50172
S1130610A40193010E9499237B018C01C601B501B9
S1130620A40193010E949923C901DA013C014D01FF
S1130630C401B30121962CAD3DAD4EAD5FAD219704
S11306400E947A239B01AC018701FF24EE2489A533
S11306509AA5ABA5BCA5A070B07057016801A82AE3
S1130660B92ACA2ADB2AA216B306C406D506E0F4C0
S113067008946108710881089108A20CB31CC41C79
S1130680D51CA214B304C404D50470F0A216B30696
S1130690C406D50648F408946108710881089108D5
S11306A0A20CB31CC41CD51C8DA59EA5AFA5B8A9CE
S11306B06F960FAC6F9704C0880F991FAA1FBB1FBA
S11306C00A94D2F78DA79EA7AFA7B8ABA21AB30A14
S11306D0C40AD50A2596ECACFDAC0EAD1FAD25972A
S11306E0D70199278827682A792A8A2A9B2A82018E
S11306F02227332729960CAF1DAF2EAF3FAF299782
S1130700A2019101407050702D962CAF3DAF4EAFB9
S11307105FAF2D97C601B50129962CAD3DAD4EAD09
S11307205FAD29970E9499237B018C01C601B50115
S113073029962CAD3DAD4EAD5FAD29970E9499230E
S1130740C901DA0161968CAF9DAFAEAFBFAF6197BF
S1130750BC01CD012D962CAD3DAD4EAD5FAD2D97B9
S11307600E947A239B01AC018701FF24EE24ADA4EF
S1130770BEA4CFA4D8A8C601AA27BB2757016801E5
S1130780A82AB92ACA2ADB2AA216B306C406D506A1
S113079060F561966CAD7DAD8EAD9FAD6197615096
S11307A070408040904061966CAF7DAF8EAF9FAF3C
S11307B06197A20CB31CC41CD51CA214B304C404BA
S11307C0D50498F0A216B306C406D50670F4615099
S11307D070408040904061966CAF7DAF8EAF9FAF0C
S11307E06197A20CB31CC41CD51CA21AB30AC40A78
S11307F0D50AC601B50129962CAD3DAD4EAD5FAD10
S113080029970E9499237B018C01C601B501299681
S11308102CAD3DAD4EAD5FAD29970E949923C90122
S1130820DA015C016D01C601B5012D962CAD3DAD1B
S11308304EAD5FAD2D970E947A239B01AC018701D9
S1130840FF24EE248DA59EA5AFA5B8A9A070B07015
S1130850E82AF92A0A2B1B2BE216F30604071507CC
S1130860C0F40894A108B108C108D108E20CF31C33
S1130870041D151DE214F3040405150550F0E216D9
S1130880F3060407150728F40894A108B108C10861
S1130890D1086196ECACFDAC0EAD1FAD6197D701EC
S11308A09927882796018501082B192B2A2B3B2B86
S11308B009AB1AAB2BAB3CAB62C26E147F0480064F
S11308C0910608F451C220E0E21620E0F20621E08D
S11308D0020720E0120788F43FEFE316F104010554
S11308E0110531F028F048E050E060E070E017C0F6
S11308F040E050E060E070E012C040E0E41640E008
S1130900F40640E0040741E0140728F048E150E011
S113091060E070E004C040E150E060E070E0D801C5
S1130920C701042E04C0B695A795979587950A9498
S1130930D2F780509F4FDC012C9130E2A32EB12CD2
S1130940C12CD12CD601C501841B950BA60BB70B6A
S1130950821B9109A109B1090097A105B10589F488
S1130960E614F7040805190508F4F2C16DA47EA481
S11309708FA498A8621473048404950408F0E8C151
S1130980F3C16E968FAF6E97082E04C0EE0CFF1C59
S1130990001F111F0A94D2F76A2D681BD201C101EE
S11309A0062E04C0B695A795979587950A94D2F715
S11309B05C016D01AE28BF28C02AD12AADA2BEA217
S11309C0CFA2D8A6720161016E960FAC6E9704C0D7
S11309D0CC0CDD1CEE1CFF1C0A94D2F7C9A2DAA2CF
S11309E0EBA2FCA264015301062E04C0D694C79462
S11309F0B794A7940A94D2F7D401C3016E960FACAE
S1130A006E9704C0880F991FAA1FBB1F0A94D2F7C0
S1130A10EDA4FEA40FA518A904C016950795F79494
S1130A20E7946A95D2F737014801682A792A8A2A15
S1130A309B2A6D8E7E8E8F8E98A2EDA0FEA00FA1B4
S1130A4018A53801882499249801870120703070F2
S1130A5065960CAF1DAF2EAF3FAF6597C601B501CC
S1130A60A40193010E9499237B018C01C601B50165
S1130A70A40193010E949923C901DA011C012D01EB
S1130A80C201B10165962CAD3DAD4EAD5FAD65972C
S1130A900E947A239B01AC018701FF24EE24AD8CD4
S1130AA0BE8CCF8CD8A0C601AA27BB2757016801EA
S1130AB0A82AB92ACA2ADB2AA216B306C406D5066E
S1130AC000F508942108310841085108EDA0FEA062
S1130AD00FA118A5AE0CBF1CC01ED11EAE14BF04BE
S1130AE0C006D10670F0A216B306C406D50648F4B3
S1130AF008942108310841085108AE0CBF1CC01EDF
S1130B00D11EA21AB30AC40AD50AC601B501A401AA
S1130B1093010E9499237B018C01C601B501A401B4
S1130B2093010E949923C901DA013C014D01C401DA
S1130B30B30165962CAD3DAD4EAD5FAD65970E949A
S1130B407A239B01AC018701FF24EE248D8D9E8DB9
S1130B50AF8DB8A1A070B07057016801A82AB92A56
S1130B60CA2ADB2AA216B306C406D50600F50894E1
S1130B7061087108810891086DA17EA18FA198A5D3
S1130B80A60EB71EC81ED91EA616B706C806D906D5
S1130B9070F0A216B306C406D50648F4089461089A
S1130BA0710881089108A60EB71EC81ED91ED60169
S1130BB0C501821B930BA40BB50B898F9A8FAB8F46
S1130BC0BC8FD1019927882764015301A82AB92A27
S1130BD0CA2ADB2AA9AABAAACBAADCAA8601750169
S1130BE02FEF3FEF40E050E0E222F32204231523ED
S1130BF0A601662777276D964CAF5DAF6EAF7FAFCA
S1130C006D97A9A0BAA0CBA0DCA06FEF7FEF80E026
S1130C1090E0A622B722C822D92289A19AA1ABA129
S1130C20BCA11D0144245524C801B701A6019501A6
S1130C300E947A2369966CAF7DAF8EAF9FAF6997A0
S1130C40C801B701A20191010E947A233B014C0122
S1130C506D966CAD7DAD8EAD9FAD6D97A601950182
S1130C600E947A237B018C016D966CAD7DAD8EADB7
S1130C709FAD6D97A20191010E947A235B016C01E3
S1130C80A8019701260D371D481D591D69966CACA6
S1130C907DAC8EAC9FAC6997C401AA27BB27280FF3
S1130CA0391F4A1F5B1F2E153F054007510748F4A3
S1130CB0E12CF12C61E0062F112DAE0CBF1CC01EDF
S1130CC0D11ECA01AA27BB27BC01CD016A0D7B1D19
S1130CD08C1D9D1D698C7A8C8B8C9C8C661677067A
S1130CE08806990640F1661577058805990509F087
S1130CF043C0D9019927882769962CAD3DAD4EADE7
S1130D005FAD699740705070820F931FA41FB51F89
S1130D102DA53EA54FA558A96E960FAC6E9704C09D
S1130D20220F331F441F551F0A94D2F7281739077F
S1130D304A075B0708F509A91AA92BA93CA9015080
S1130D4010402040304009AB1AAB2BAB3CAB14C075
S1130D5066247724430121E030E040E050E029ABF1
S1130D603AAB4BAB5CAB0BC066247724430119AAA6
S1130D701AAA1BAA1CAA03C0662477244301FE01F5
S1130D80719688E0DF011D928A95E9F7A9A8BAA8AF
S1130D90CBA8DCA8A98ABA8ACB8ADC8A6D8A7E8A27
S1130DA08F8A988E29A93A894B895C89662D7E8918
S1130DB08F89988DC25ADF4FE2E10C94D7231F929A
S1130DC00F920FB60F9200905B000F9211242F9395
S1130DD03F934F935F938F939F93AF93BF93EF93FF
S1130DE0FF93DF93CF9300D000D0CDB7DEB7EDEE05
S1130DF0F0E080818C831B829CC0EDEEF0E08B815F
S1130E008295807F8083EEEEF0E0808182958695E6
S1130E108770882F90E081709070882309F46EC0E9
S1130E20EFEEF0E080E88083AEEEB0E0EEEEF0E0CE
S1130E3080818F7D8C93E2EFF0E0808182958695AE
S1130E408770282FE3EFF0E08081882F90E0880FEF
S1130E50991F880F991F880F991F822B8A831982E3
S1130E602AC08A81282F30E081E090E0821B930B16
S1130E70880F991F909581959F4FFC01E65EFD4F69
S1130E80408151818A81882F90E00197FC01E25DC5
S1130E90FD4F8081282F30E08981882F90E0820FD8
S1130EA0931FDA01A80FB91FEAEFF0E080818C9359
S1130EB089818F5F89838981883098F28A81882F1C
S1130EC090E00197FC01E25DFD4F80818F5F80839C
S1130ED08081853041F48A81882F90E00197FC015C
S1130EE0E25DFD4F10828A81882F90E00197FC011A
S1130EF0EE5BFD4F80818F5F80831FC0EEEEF0E0DC
S1130F0080818295869586958370882F90E0817084
S1130F109070882359F0EFEEF0E01082AEEEB0E06E
S1130F20EEEEF0E080818F7B8C9307C08B818F5F26
S1130F308B838B818F3008F460CFEDEEF0E08C81F1
S1130F408083AAEDB0E0EAEDF0E080818C930F900D
S1130F500F900F900F90CF91DF91FF91EF91BF9180
S1130F60AF919F918F915F914F913F912F910F90EE
S1130F7000925B000F900FBE0F901F901895DF93A7
S1130F80CF9300D0CDB7DEB7E8EDF0E081E0808309
S1130F901A8232C0EDEEF0E08A818295807F8083F0
S1130FA0EEEEF0E01082EFEEF0E01082E3EFF0E01E
S1130FB01082E2EFF0E01082E1EFF0E01082E0EF67
S1130FC0F0E01082E7EFF0E01082E6EFF0E010824C
S1130FD0E5EFF0E01082E4EFF0E01082198206C041
S1130FE0EAEFF0E0108289818F5F898389818830FC
S1130FF0B8F38A818F5F8A838A818F3058F2E8ED53
S1131000F0E082E08083E2EEF0E081E08083E3EED2
S1131010F0E088E08083E4EEF0E08EE58083E5EEA6
S1131020F0E01082EBEDF0E080EB8083EFEDF0E098
S11310308FE78083EEEDF0E08FEF808378940F905C
S11310400F90CF91DF910895DF93CF9300D000D01C
S11310500F92CDB7DEB79C838B83EDEEF0E08081F9
S11310608983E9EDF0E0808182958F70882F90E08C
S1131070817090708823A9F7E9EDF0E0808186956E
S113108086958695882F90E081709070882349F723
S11310901A823FC0EDEEF0E08A818295807F8083E2
S11310A0EFEEF0E0808182958695869583708823A3
S11310B069F5EFEEF0E08FE08083E3EFF0E08B8101
S11310C09C8190709695879596958795969587952A
S11310D08083E2EFF0E08B818295880F807E8083AD
S11310E0E6EFF0E080EE8083E7EFF0E08FEF8083BF
S11310F0AFEEB0E0EFEEF0E0808180688C93EDEE2F
S1131100F0E08981808381E08D830CC08A818F5FC8
S11311108A838A818F3008F4BDCFEDEEF0E08981B7
S113112080831D828D810F900F900F900F900F90F0
S1131130CF91DF9108950F931F93DF93CF9300D046
S1131140CDB7DEB78A831BDF198236C08981882F29
S113115090E0019679DF8981882F90E0880F991FAC
S11311608C01065E1D4F85E090E061E070E00E9416
S1131170F223F801918380838981482F50E089818B
S1131180282F30E08981882F90E0FC01EE5BFD4F31
S11311901082FC01EE5BFD4F8081F901E85CFD4F9C
S11311A08083F901E85CFD4F8081FA01E25DFD4F27
S11311B0808389818F5F898399818A81981730F22E
S11311C00F900F90CF91DF911F910F910895DF93AE
S11311D0CF9300D000D0CDB7DEB79B838A836C83D6
S11311E08C81882F90E00197FC01EE5BFD4F80819C
S11311F08823B1F3198230C08981282F30E08A8195
S11312009B81DC01A20FB31F8C81282F30E081E089
S113121090E0821B930B880F991F909581959F4FA7
S1131220FC01E65EFD4F408151818C81882F90E066
S11312300197FC01E85CFD4F8081282F30E0898113
S1131240882F90E0820F931FFA01E80FF91F808125
S11312508C9389818F5F89838981883068F28C813E
S1131260882F90E00197FC01E85CFD4F80818F5F3F
S113127080838081853041F48C81882F90E00197B0
S1131280FC01E85CFD4F10828C81882F90E09C016A
S113129021503040F901EE5BFD4F80818150F9010E
S11312A0EE5BFD4F808380E00F900F900F900F90C6
S11312B0CF91DF910895DF93CF93CDB7DEB7279712
S11312C00FB6F894DEBF0FBECDBF9D838C836E83B3
S11312D0E9EDF0E0808182958F70882F90E0817035
S11312E090708823A9F7E9EDF0E0808186958695D2
S11312F08695882F90E081709070882349F7EDEEF1
S1131300F0E0808189831A8212C0EDEEF0E08A81D8
S11313108295807F8083EFEEF0E0808182958695D0
S113132086958370882331F08A818F5F8A838A81CE
S11313308F3058F38A818F3019F48FEF8F8332C046
S1131340E2EFF0E08E818295880F807E8083E3EF68
S1131350F0E08E818695869586958083EFEEF0E0A9
S113136088E080831B820FC0AAEFB0E08B81282F16
S113137030E08C819D81FC01E20FF31F80818C930E
S11313808B818F5F8B838B81883070F3AFEEB0E0FD
S1131390EFEEF0E0808180648C93EDEEF0E08981E3
S11313A080831F828F8127960FB6F894DEBF0FBE0D
S11313B0CDBFCF91DF910895EF92FF920F931F93CA
S11313C0DF93CF93CDB7DEB7CA54D0400FB6F894AD
S11313D0DEBF0FBECDBFFE01E95BFF4F60837183AB
S11313E082839383809173030E949B18813039F028
S11313F0809171030E949B18813009F07AC3809117
S11314007503882309F075C30E94171A9B01AC0168
S1131410FE01E95BFF4F80819181A281B381790153
S11314208A01E81AF90A0A0B1B0BD801C701883E86
S113143003E0900700E0A00700E0B00708F4AAC0AA
S11314400E94171A9B01AC01FE01E95BFF4F8081EA
S11314509181A281B38179018A01E81AF90A0A0B00
S11314601B0BD801C7018D3404E0900700E0A007EE
S113147000E0B00708F08EC083E74AD5FE01ED5BBB
S1131480FF4F80E090E0AAEFB4E480839183A283CD
S1131490B3838E01015C1F4FFE01ED5BFF4F608142
S11314A071818281938120E030E44CE155E40E9413
S11314B01723DC01CB01F80180839183A283B383DA
S11314C0FE01FF96608171818281938120E030E08A
S11314D040E85FE30E948B2188232CF481E090E0B4
S11314E09EAF8DAF46C0FE01FF96608171818281FF
S11314F0938120E03FEF4FE757E40E94132318162F
S113150064F5FE01ED5BFF4F6081718182819381FF
S113151020E030E040E251E40E941723DC01CB01DB
S1131520BC01CD010E94F721DC01CB019EAF8DAF40
S11315300FC08AEF90E09CAF8BAF8BAD9CAD019751
S1131540F1F79CAF8BAF8DAD9EAD01979EAF8DAF84
S11315508DAD9EAD009769F716C0FE01FF966081C0
S11315607181828193810E94F721DC01CB019EAFBE
S11315708DAF8DAD9EAD9AAF89AF89AD9AAD019710
S1131580F1F79AAF89AF85E69FEF6AE540E050E056
S1131590D8D5AFC20E94171A9B01AC01FE01E95BCA
S11315A0FF4F80819181A281B38179018A01E81A78
S11315B0F90A0A0B1B0BD801C7018C3404E090070D
S11315C000E0A00700E0B00708F497C00E94171AD3
S11315D09B01AC01FE01E95BFF4F80819181A281F7
S11315E0B38179018A01E81AF90A0A0B1B0BD801A5
S11315F0C701813B04E0900700E0A00700E0B007CA
S113160008F07BC083E784D480E090E0AAEFB4E4E0
S11316108DAB9EABAFABB8AF6DA97EA98FA998ADCA
S113162020E030E44CE155E40E941723DC01CB01B7
S113163089AB9AABABABBCAB69A97AA98BA99CA9C2
S113164020E030E040E85FE30E948B2188232CF403
S113165081E090E098AB8FA73FC069A97AA98BA9D4
S11316609CA920E03FEF4FE757E40E94132318168C
S11316704CF56DA97EA98FA998AD20E030E040E239
S113168051E40E941723DC01CB01BC01CD010E946F
S1131690F721DC01CB0198AB8FA70FC08AEF90E054
S11316A09EA78DA78DA59EA50197F1F79EA78DA74F
S11316B08FA598A9019798AB8FA78FA598A9009794
S11316C069F714C069A97AA98BA99CA90E94F7217A
S11316D0DC01CB0198AB8FA78FA598A99CA78BA7FA
S11316E08BA59CA50197F1F79CA78BA782E79FEF99
S11316F06AE540E050E025D5FCC10E94171A9B0121
S1131700AC01FE01E95BFF4F80819181A281B3812D
S113171079018A01E81AF90A0A0B1B0BD801C701DF
S1131720803B04E0900700E0A00700E0B00708F465
S113173097C00E94171A9B01AC01FE01E95BFF4FA1
S113174080819181A281B38179018A01E81AF90A21
S11317500A0B1B0BD801C701853105E0900700E097
S1131760A00700E0B00708F07BC083E7D1D380E096
S113177090E0AAEFB4E48FA398A7A9A7BAA76FA192
S113178078A589A59AA520E030E44CE155E40E94AF
S11317901723DC01CB018BA39CA3ADA3BEA36BA138
S11317A07CA18DA19EA120E030E040E85FE30E948F
S11317B08B2188232CF481E090E09AA389A33FC075
S11317C06BA17CA18DA19EA120E03FEF4FE757E4E0
S11317D00E94132318164CF56FA178A589A59AA524
S11317E020E030E040E251E40E941723DC01CB0109
S11317F0BC01CD010E94F721DC01CB019AA389A38E
S11318000FC08AEF90E098A38F8F8F8D98A10197D6
S1131810F1F798A38F8F89A19AA101979AA389A31D
S113182089A19AA1009769F714C06BA17CA18DA12D
S11318309EA10E94F721DC01CB019AA389A389A16F
S11318409AA19E8F8D8F8D8D9E8D0197F1F79E8F1E
S11318508D8F83E89FEF6AE540E050E072D449C180
S11318600E94171A9B01AC01FE01E95BFF4F8081C6
S11318709181A281B38179018A01E81AF90A0A0BDC
S11318801B0BD801C701843105E0900700E0A007D5
S113189000E0B00708F497C00E94171A9B01AC013E
S11318A0FE01E95BFF4F80819181A281B3817901BF
S11318B08A01E81AF90A0A0B1B0BD801C7018937F8
S11318C005E0900700E0A00700E0B00708F07BC047
S11318D083E71ED380E090E0AAEFB4E4898F9A8F67
S11318E0AB8FBC8F698D7A8D8B8D9C8D20E030E41D
S11318F04CE155E40E941723DC01CB018D8B9E8BB8
S1131900AF8BB88F6D897E898F89988D20E030E008
S113191040E85FE30E948B2188232CF481E090E06F
S11319209C8B8B8B3FC06D897E898F89988D20E03D
S11319303FEF4FE757E40E94132318164CF5698DC7
S11319407A8D8B8D9C8D20E030E040E251E40E9442
S11319501723DC01CB01BC01CD010E94F721DC017E
S1131960CB019C8B8B8B0FC08AEF90E09A8B898B79
S113197089899A890197F1F79A8B898B8B899C893C
S113198001979C8B8B8B8B899C89009769F714C07A
S11319906D897E898F89988D0E94F721DC01CB01A6
S11319A09C8B8B8B8B899C89988B8F878F8598894F
S11319B00197F1F7988B8F8786EA9FEF6AE540E0FD
S11319C050E0BFD396C00E94171A9B01AC01FE01E0
S11319D0E95BFF4F80819181A281B38179018A0102
S11319E0E81AF90A0A0B1B0BD801C701863405E073
S11319F0900700E0A00700E0B00708F47AC083E78E
S1131A0087D280E090E0AAEFB4E48B879C87AD870F
S1131A10BE876B857C858D859E8520E030E44CE116
S1131A2055E40E941723DC01CB018F839887A98793
S1131A30BA876F81788589859A8520E030E040E80F
S1131A405FE30E948B2188232CF481E090E09E8345
S1131A508D833FC06F81788589859A8520E03FEF2B
S1131A604FE757E40E94132318164CF56B857C85C9
S1131A708D859E8520E030E040E251E40E941723EA
S1131A80DC01CB01BC01CD010E94F721DC01CB01BB
S1131A909E838D830FC08AEF90E09C838B838B8120
S1131AA09C810197F1F79C838B838D819E810197A3
S1131AB09E838D838D819E81009769F714C06F8109
S1131AC0788589859A850E94F721DC01CB019E8364
S1131AD08D838D819E819A83898389819A810197DF
S1131AE0F1F79A83898380EB9FEF6AE540E050E049
S1131AF028D380E0C65BDF4F0FB6F894DEBF0FBE7D
S1131B00CDBFCF91DF911F910F91FF90EF9008957A
S1131B10DF93CF93CDB7DEB7A6970FB6F894DEBFA9
S1131B200FBECDBF18A21F8E81E08D8F1AA219A2FD
S1131B301CA21BA21EA21DA249A15AA16BA17CA199
S1131B408DA19EA16ED58D8D882F90E08130910559
S1131B50D1F78F8D88A32AC188A1282F30E0C9012D
S1131B60880F991F880F991F820F931FFC01EA5F4A
S1131B70FD4F4081518188A1282F30E0C901880F91
S1131B80991F880F991F820F931FFC01E85FFD4F77
S1131B90608188A1282F30E0C901880F991F880F20
S1131BA0991F820F931FFC01E75FFD4F8081918194
S1131BB09C01CA01A901C5D28E8F88A1882309F08E
S1131BC0EBC080E090E0AAE7B4E4898F9A8FAB8FF2
S1131BD0BC8F698D7A8D8B8D9C8D20E030E44CE137
S1131BE055E40E941723DC01CB018D8B9E8BAF8BB8
S1131BF0B88F6D897E898F89988D20E030E040E828
S1131C005FE30E948B2188232CF481E090E09C8B7D
S1131C108B8B3FC06D897E898F89988D20E03FEF43
S1131C204FE757E40E94132318164CF5698D7A8DFB
S1131C308B8D9C8D20E030E040E251E40E9417231C
S1131C40DC01CB01BC01CD010E94F721DC01CB01F9
S1131C509C8B8B8B0FC08AEF90E09A8B898B898940
S1131C609A890197F1F79A8B898B8B899C890197C3
S1131C709C8B8B8B8B899C89009769F714C06D8929
S1131C807E898F89988D0E94F721DC01CB019C8B82
S1131C908B8B8B899C89988B8F878F8598890197EB
S1131CA0F1F7988B8F878DEA9FEF62E340E050E075
S1131CB07DD680E090E0AAE7B4E48B879C87AD876B
S1131CC0BE876B857C858D859E8520E030E44CE164
S1131CD055E40E941723DC01CB018F839887A987E1
S1131CE0BA876F81788589859A8520E030E040E85D
S1131CF05FE30E948B2188232CF481E090E09E8393
S1131D008D833FC06F81788589859A8520E03FEF78
S1131D104FE757E40E94132318164CF56B857C8516
S1131D208D859E8520E030E040E251E40E94172337
S1131D30DC01CB01BC01CD010E94F721DC01CB0108
S1131D409E838D830FC08AEF90E09C838B838B816D
S1131D509C810197F1F79C838B838D819E810197F0
S1131D609E838D838D819E81009769F71CC06F814E
S1131D70788589859A850E94F721DC01CB019E83B1
S1131D808D838D819E819A83898389819A8101972C
S1131D90F1F79A83898307C088A1813021F48AEFFF
S1131DA00E94D91AFFCF88A18F5F88A388A18230AF
S1131DB008F4D2CEC8CEDF93CF93CDB7DEB70E945E
S1131DC0351B813099F40E94171ADC01CB0181394B
S1131DD02FE5920721E0A20720E0B20738F0E4E300
S1131DE0F0E08FEF808383E593D0FFCFCF91DF9135
S1131DF00895DF93CF93CDB7DEB72E970FB6F8943F
S1131E00DEBF0FBECDBF0E94CB1980E090E0A8ECEE
S1131E10B2E48B879C87AD87BE876B857C858D8577
S1131E209E8520E030E44CE155E40E941723DC0158
S1131E30CB018F839887A987BA876F817885898535
S1131E409A8520E030E040E85FE30E948B218823FC
S1131E502CF481E090E09E838D833FC06F81788570
S1131E6089859A8520E03FEF4FE757E40E941323CA
S1131E7018164CF56B857C858D859E8520E030E0B9
S1131E8040E251E40E941723DC01CB01BC01CD01E7
S1131E900E94F721DC01CB019E838D830FC08AEF62
S1131EA090E09C838B838B819C810197F1F79C83C9
S1131EB08B838D819E8101979E838D838D819E81ED
S1131EC0009769F714C06F81788589859A850E9487
S1131ED0F721DC01CB019E838D838D819E819A83C2
S1131EE0898389819A810197F1F79A838983809103
S1131EF06F030E949B18882311F40ADEF8CF8091A7
S1131F006F030E949B18813091F70E94DD1FEFCF71
S1131F10DF93CF93CDB7DEB7A5970FB6F894DEBFA6
S1131F200FBECDBF8DA38DA18D8F72C080E090E0D8
S1131F30A8E4B2E4898F9A8FAB8FBC8F698D7A8DB8
S1131F408B8D9C8D20E030E44CE155E40E941723F6
S1131F50DC01CB018D8B9E8BAF8BB88F6D897E8915
S1131F608F89988D20E030E040E85FE30E948B2168
S1131F7088232CF481E090E09C8B8B8B3FC06D898F
S1131F807E898F89988D20E03FEF4FE757E40E94C8
S1131F90132318164CF5698D7A8D8B8D9C8D20E05A
S1131FA030E040E251E40E941723DC01CB01BC0184
S1131FB0CD010E94F721DC01CB019C8B8B8B0FC0E0
S1131FC08AEF90E09A8B898B89899A890197F1F736
S1131FD09A8B898B8B899C8901979C8B8B8B8B89A2
S1131FE09C89009769F714C06D897E898F89988DC3
S1131FF00E94F721DC01CB019C8B8B8B8B899C8904
S1132000988B8F878F8598890197F1F7988B8F87A5
S1132010CE014D9663EC4FD9882309F087CF80E534
S11320208D8F72C080E090E0A8E4B2E48B879C8737
S1132030AD87BE876B857C858D859E8520E030E4E9
S11320404CE155E40E941723DC01CB018F83988770
S1132050A987BA876F81788589859A8520E030E0E1
S113206040E85FE30E948B2188232CF481E090E018
S11320709E838D833FC06F81788589859A8520E012
S11320803FEF4FE757E40E94132318164CF56B8576
S11320907C858D859E8520E030E040E251E40E94FD
S11320A01723DC01CB01BC01CD010E94F721DC0127
S11320B0CB019E838D830FC08AEF90E09C838B833A
S11320C08B819C810197F1F79C838B838D819E8109
S11320D001979E838D838D819E81009769F714C03B
S11320E06F81788589859A850E94F721DC01CB016F
S11320F09E838D838D819E819A83898389819A8130
S11321000197F1F79A838983CE014D9663ECD3D876
S1132110882309F087CFCE014D9661E058D88D8D84
S11321208D3409F400CF8D8D823509F4FCCE80E026
S1132130A5960FB6F894DEBF0FBECDBFCF91DF9149
S11321400895DF93CF93CDB7DEB7CB54D0400FB60D
S1132150F894DEBF0FBECDBFFE01EA5BFF4F918353
S11321608083FE01E85BFF4F6083FE01E75BFF4F66
S11321705183408386E58EAFFE01E85BFF4F80818B
S11321808FAF72C080E090E0A8E4B2E48DAB9EAB68
S1132190AFABB8AF6DA97EA98FA998AD20E030E4AC
S11321A04CE155E40E941723DC01CB0189AB9AABC7
S11321B0ABABBCAB69A97AA98BA99CA920E030E0A0
S11321C040E85FE30E948B2188232CF481E090E0B7
S11321D098AB8FA73FC069A97AA98BA99CA920E0D5
S11321E03FEF4FE757E40E94132318164CF56DA9EF
S11321F07EA98FA998AD20E030E040E251E40E942E
S11322001723DC01CB01BC01CD010E94F721DC01C5
S1132210CB0198AB8FA70FC08AEF90E09EA78DA744
S11322208DA59EA50197F1F79EA78DA78FA598A9C7
S1132230019798AB8FA78FA598A9009769F714C049
S113224069A97AA98BA99CA90E94F721DC01CB0179
S113225098AB8FA78FA598A99CA78BA78BA59CA5A6
S11322600197F1F79CA78BA7CE01CE9663EC23D8F8
S1132270882309F087CF84E48EAFFE01EA5BFF4F29
S113228080819181892F990F990B8FAFFE01EA5BB1
S1132290FF4F8081FE01E05CFF4F808372C080E0CD
S11322A090E0A8E4B2E48FA398A7A9A7BAA76FA166
S11322B078A589A59AA520E030E44CE155E40E9474
S11322C01723DC01CB018BA39CA3ADA3BEA36BA1FD
S11322D07CA18DA19EA120E030E040E85FE30E9454
S11322E08B2188232CF481E090E09AA389A33FC03A
S11322F06BA17CA18DA19EA120E03FEF4FE757E4A5
S11323000E94132318164CF56FA178A589A59AA5E8
S113231020E030E040E251E40E941723DC01CB01CD
S1132320BC01CD010E94F721DC01CB019AA389A352
S11323300FC08AEF90E098A38F8F8F8D98A101979B
S1132340F1F798A38F8F89A19AA101979AA389A3E2
S113235089A19AA1009769F714C06BA17CA18DA1F2
S11323609EA10E94F721DC01CB019AA389A389A134
S11323709AA19E8F8D8F8D8D9E8D0197F1F79E8FE3
S11323808D8FCE01CE9663EC0E945B09882309F001
S113239086CF0E94171AAA2797FDA095BA2F89AF56
S11323A09AAFABAFBCAF80E58EAF72C080E090E077
S11323B0A8E4B2E4898F9A8FAB8FBC8F698D7A8D34
S11323C08B8D9C8D20E030E44CE155E40E94172372
S11323D0DC01CB018D8B9E8BAF8BB88F6D897E8991
S11323E08F89988D20E030E040E85FE30E948B21E4
S11323F088232CF481E090E09C8B8B8B3FC06D890B
S11324007E898F89988D20E03FEF4FE757E40E9443
S1132410132318164CF5698D7A8D8B8D9C8D20E0D5
S113242030E040E251E40E941723DC01CB01BC01FF
S1132430CD010E94F721DC01CB019C8B8B8B0FC05B
S11324408AEF90E09A8B898B89899A890197F1F7B1
S11324509A8B898B8B899C8901979C8B8B8B8B891D
S11324609C89009769F714C06D897E898F89988D3E
S11324700E94F721DC01CB019C8B8B8B8B899C897F
S1132480988B8F878F8598890197F1F7988B8F8721
S1132490CE01CE9663EC0E945B09882309F086CFB7
S11324A0CE01CE9661E00E94E7088EAD893421F416
S11324B02C961FAE2C97A8C08EAD833529F482E0EC
S11324C02C968FAF2C97A0C08EAD853429F481E073
S11324D02C968FAF2C9798C080E090E0A8E4B2E4EB
S11324E08B879C87AD87BE876B857C858D859E8514
S11324F020E030E44CE155E40E941723DC01CB01D9
S11325008F839887A987BA876F81788589859A850B
S113251020E030E040E85FE30E948B2188232CF424
S113252081E090E09E838D833FC06F8178858985AB
S11325309A8520E03FEF4FE757E40E9413231816D3
S11325404CF56B857C858D859E8520E030E040E2EE
S113255051E40E941723DC01CB01BC01CD010E9490
S1132560F721DC01CB019E838D830FC08AEF90E0BD
S11325709C838B838B819C810197F1F79C838B8354
S11325808D819E8101979E838D838D819E8100978D
S113259069F714C06F81788589859A850E94F7212F
S11325A0DC01CB019E838D838D819E819A838983F7
S11325B089819A810197F1F79A838983FE01E75B08
S11325C0FF4F80819181009709F4EDCEFE01E75B16
S11325D0FF4F89AD9AADABADBCAD0190F081E02D5C
S11325E0BC01CD0109958DAF8DAD813029F481E019
S11325F02C968FAF2C9708C08DAD823009F0D3CEC6
S113260083E02C968FAF2C972C968FAD2C97C55BBF
S1132610DF4F0FB6F894DEBF0FBECDBFCF91DF9171
S11326200895DF93CF93CDB7DEB7E3970FB6F89451
S1132630DEBF0FBECDBF4BA75CA76DA77EA78FA73C
S113264098AB89E48D8F8BA59CA5892F990F990B45
S11326508E8F8BA59CA58F8F8DA59EA5892F990FF5
S1132660990B88A38DA59EA589A31AA28FA598A9C5
S11326708BA372C080E090E0A8E4B2E4898F9A8FC3
S1132680AB8FBC8F698D7A8D8B8D9C8D20E030E46F
S11326904CE155E40E941723DC01CB018D8B9E8B0A
S11326A0AF8BB88F6D897E898F89988D20E030E05B
S11326B040E85FE30E948B2188232CF481E090E0C2
S11326C09C8B8B8B3FC06D897E898F89988D20E090
S11326D03FEF4FE757E40E94132318164CF5698D1A
S11326E07A8D8B8D9C8D20E030E040E251E40E9495
S11326F01723DC01CB01BC01CD010E94F721DC01D1
S1132700CB019C8B8B8B0FC08AEF90E09A8B898BCB
S113271089899A890197F1F79A8B898B8B899C898E
S113272001979C8B8B8B8B899C89009769F714C0CC
S11327306D897E898F89988D0E94F721DC01CB01F8
S11327409C8B8B8B8B899C89988B8F878F859889A1
S11327500197F1F7988B8F87CE014D9663EC0E9419
S11327605B09882309F086CF80E58D8F72C080E0F5
S113277090E0A8E4B2E48B879C87AD87BE876B8525
S11327807C858D859E8520E030E44CE155E40E94F3
S11327901723DC01CB018F839887A987BA876F81C0
S11327A0788589859A8520E030E040E85FE30E94DF
S11327B08B2188232CF481E090E09E838D833FC09D
S11327C06F81788589859A8520E03FEF4FE757E44C
S11327D00E94132318164CF56B857C858D859E8588
S11327E020E030E040E251E40E941723DC01CB01F9
S11327F0BC01CD010E94F721DC01CB019E838D83B6
S11328000FC08AEF90E09C838B838B819C8101971E
S1132810F1F79C838B838D819E8101979E838D83A9
S11328208D819E81009769F714C06F8178858985B1
S11328309A850E94F721DC01CB019E838D838D81D3
S11328409E819A83898389819A810197F1F79A837A
S11328508983CE014D9663EC0E945B09882309F0BD
S113286086CFCE014D9661E00E94E7088E8D882FB9
S113287090E0382F22278F8D882F90E0822B932B86
S11328809EA38DA388A1882F90E0382F222789A1A9
S1132890882F90E0822B932B98A78FA38AA1882F4F
S11328A090E0382F22278BA1882F90E0822B932B46
S11328B09AA789A72DA13EA18BA59CA5A901481B78
S11328C0590BCA01AA2797FDA095BA2FBC01CD01C7
S11328D00E942522DC01CB01BF771BAABC01CD01DC
S11328E020E030E040EA50E40E941323181614F468
S11328F051E05BAB81E09BA98927882309F4A1CE31
S11329002FA138A58DA59EA5A901481B590BCA0165
S1132910AA2797FDA095BA2FBC01CD010E942522BC
S1132920DC01CB01BF771AAABC01CD0120E030E065
S113293040EA50E40E941323181614F451E05AABF1
S113294081E09AA98927882309F47BCE29A53AA591
S11329508FA598A9A901481B590BCA01AA2797FD5D
S1132960A095BA2FBC01CD010E942522DC01CB0128
S1132970BF7719AABC01CD0120E030E040EA50E461
S11329800E941323181614F451E059AB81E099A95D
S11329908927882309F455CE80E0E3960FB6F8948E
S11329A0DEBF0FBECDBFCF91DF9108950F931F936C
S11329B0DF93CF93CDB7DEB7CB55D0400FB6F894A5
S11329C0DEBF0FBECDBFFE01EC5AFF4F9183808363
S11329D0FE01EA5AFF4F6083FE01E95AFF4F51831B
S11329E04083FE01E45BFF4F86E58083DE01A45B48
S11329F0BF4FFE01EA5AFF4F808111968C931197C5
S1132A0085C0FE01ED5BFF4F80E090E0A8E4B2E4F6
S1132A1080839183A283B3838E01015C1F4FFE01E7
S1132A20ED5BFF4F608171818281938120E030E40E
S1132A304CE155E40E941723DC01CB01F8018083AB
S1132A409183A283B383FE01FF96608171818281A9
S1132A50938120E030E040E85FE30E948B218823EB
S1132A602CF481E090E09EAF8DAF46C0FE01FF964E
S1132A70608171818281938120E03FEF4FE757E4C9
S1132A800E941323181664F5FE01ED5BFF4F60816D
S1132A9071818281938120E030E040E251E40E9420
S1132AA01723DC01CB01BC01CD010E94F721DC011D
S1132AB0CB019EAF8DAF0FC08AEF90E09CAF8BAF80
S1132AC08BAD9CAD0197F1F79CAF8BAF8DAD9EADF7
S1132AD001979EAF8DAF8DAD9EAD009769F716C07F
S1132AE0FE01FF9660817181828193810E94F721AA
S1132AF0DC01CB019EAF8DAF8DAD9EAD9AAF89AF9A
S1132B0089AD9AAD0197F1F79AAF89AFCE01845B95
S1132B109F4F63EC0E945B09882309F072CFFE018A
S1132B20E45BFF4F84E58083FE01EC5AFF4F808114
S1132B309181892F990F990BFE01E45BFF4F8183EB
S1132B40FE01EC5AFF4F8081FE01E45BFF4F82835C
S1132B5072C080E090E0A8E4B2E48DAB9EABAFAB72
S1132B60B8AF6DA97EA98FA998AD20E030E44CE1FF
S1132B7055E40E941723DC01CB0189AB9AABABABC4
S1132B80BCAB69A97AA98BA99CA920E030E040E8F4
S1132B905FE30E948B2188232CF481E090E098ABC2
S1132BA08FA73FC069A97AA98BA99CA920E03FEF10
S1132BB04FE757E40E94132318164CF56DA97EA91C
S1132BC08FA998AD20E030E040E251E40E94172341
S1132BD0DC01CB01BC01CD010E94F721DC01CB015A
S1132BE098AB8FA70FC08AEF90E09EA78DA78DA505
S1132BF09EA50197F1F79EA78DA78FA598A9019788
S1132C0098AB8FA78FA598A9009769F714C069A9F5
S1132C107AA98BA99CA90E94F721DC01CB0198AB6E
S1132C208FA78FA598A99CA78BA78BA59CA5019777
S1132C30F1F79CA78BA7CE01845B9F4F63EC0E94A6
S1132C405B09882309F085CFF2D3FE01E95BFF4FCE
S1132C50AA2797FDA095BA2F80839183A283B3837B
S1132C60FE01E45BFF4F80E5808372C080E090E06A
S1132C70A8E4B2E48FA398A7A9A7BAA76FA178A5DF
S1132C8089A59AA520E030E44CE155E40E9417237D
S1132C90DC01CB018BA39CA3ADA3BEA36BA17CA140
S1132CA08DA19EA120E030E040E85FE30E948B21EB
S1132CB088232CF481E090E09AA389A33FC06BA100
S1132CC07CA18DA19EA120E03FEF4FE757E40E9435
S1132CD0132318164CF56FA178A589A59AA520E0B1
S1132CE030E040E251E40E941723DC01CB01BC0137
S1132CF0CD010E94F721DC01CB019AA389A30FC067
S1132D008AEF90E098A38F8F8F8D98A10197F1F7A8
S1132D1098A38F8F89A19AA101979AA389A389A1C6
S1132D209AA1009769F714C06BA17CA18DA19EA103
S1132D300E94F721DC01CB019AA389A389A19AA15E
S1132D409E8F8D8F8D8D9E8D0197F1F79E8F8D8F28
S1132D50CE01845B9F4F63EC0E945B09882309F0DA
S1132D6085CFCE01845B9F4F61E00E94E70880E03D
S1132D7090E0A8E4B2E4898F9A8FAB8FBC8F698D01
S1132D807A8D8B8D9C8D20E030E44CE155E40E94DB
S1132D901723DC01CB018D8B9E8BAF8BB88F6D8994
S1132DA07E898F89988D20E030E040E85FE30E94BF
S1132DB08B2188232CF481E090E09C8B8B8B3FC08B
S1132DC06D897E898F89988D20E03FEF4FE757E426
S1132DD00E94132318164CF5698D7A8D8B8D9C8D6A
S1132DE020E030E040E251E40E941723DC01CB01F3
S1132DF0BC01CD010E94F721DC01CB019C8B8B8BA4
S1132E000FC08AEF90E09A8B898B89899A89019700
S1132E10F1F79A8B898B8B899C8901979C8B8B8B7F
S1132E208B899C89009769F714C06D897E898F8985
S1132E30988D0E94F721DC01CB019C8B8B8B8B89B5
S1132E409C89988B8F878F8598890197F1F7988B48
S1132E508F87FE01E45BFF4F8081893421F46A96F9
S1132E601FAE6A97C4C0FE01E45BFF4F80818335C7
S1132E7029F4F2E06A96FFAF6A97B9C0FE01E45BF9
S1132E80FF4F8081853429F421E06A962FAF6A9739
S1132E90AEC080E090E0A8E4B2E48B879C87AD8765
S1132EA0BE876B857C858D859E8520E030E44CE172
S1132EB055E40E941723DC01CB018F839887A987EF
S1132EC0BA876F81788589859A8520E030E040E86B
S1132ED05FE30E948B2188232CF481E090E09E83A1
S1132EE08D833FC06F81788589859A8520E03FEF87
S1132EF04FE757E40E94132318164CF56B857C8525
S1132F008D859E8520E030E040E251E40E94172345
S1132F10DC01CB01BC01CD010E94F721DC01CB0116
S1132F209E838D830FC08AEF90E09C838B838B817B
S1132F309C810197F1F79C838B838D819E810197FE
S1132F409E838D838D819E81009769F714C06F8164
S1132F50788589859A850E94F721DC01CB019E83BF
S1132F608D838D819E819A83898389819A8101973A
S1132F70F1F79A838983FE01E95AFF4F8081918199
S1132F80009709F46DCE9E01295A3F4FFE01E95B7B
S1132F90FF4F80819181A281B381F9010190F08179
S1132FA0E02D6C96FFAFEEAF6C97BC01CD016C9633
S1132FB02EAD3FAD6C97F9010995FE01E55BFF4F1E
S1132FC08083FE01E55BFF4F8081813029F431E08D
S1132FD06A963FAF6A970BC0FE01E55BFF4F8081A5
S1132FE0823009F03DCE43E06A964FAF6A976A9605
S1132FF08FAD6A97C55ADF4F0FB6F894DEBF0FBE88
S1133000CDBFCF91DF911F910F9108950F931F931F
S1133010DF93CF93CDB7DEB727970FB6F894DEBF13
S11330200FBECDBF9B838A836C8380914C028A3010
S113303010F01F8274C080914C02082F10E086E0CB
S113304090E00E940C249C01C801880F991FFC0188
S1133050E15BFD4F3183208380914C02882F90E007
S1133060880F991FFC01E15BFD4F808191810097DE
S113307019F48FEF8F8353C080914C02882F90E016
S1133080880F991FFC01E15BFD4F0190F081E02D59
S11330908A819B819183808380914C02882F90E068
S11330A0880F991FFC01E15BFD4F0190F081E02D39
S11330B08C818283198216C080914C02882F90E003
S11330C0880F991FFC01E15BFD4F208131818981CB
S11330D0882F90E0820F931FFC0133961082898120
S11330E08F5F89838981833038F38A819B81FC01D6
S11330F0319780818A819B81FC0131971082EA811A
S1133100FB818081EA81FB81108280914C0289835A
S113311080914C028F5F80934C0289818F838F81D1
S113312027960FB6F894DEBF0FBECDBFCF91DF91C7
S11331301F910F910895DF93CF930F92CDB7DEB710
S113314089838981882F90E0880F991FFC01E15BB6
S1133150FD4F0190F081E02D23818981882F90E03B
S1133160880F991FFC01E15BFD4F0190F081E02D78
S1133170848128238981882F90E0880F991FFC017E
S1133180E15BFD4F0190F081E02D858182230F905A
S1133190CF91DF910895DF93CF9300D0CDB7DEB701
S11331A08A8319828A81882F90E0880F991FFC01F5
S11331B0E15BFD4F0190F081E02D80819181FC0164
S11331C032978081282F30E08A81882F90E0880F01
S11331D0991FFC01E15BFD4F0190F081E02D82819C
S11331E0882F90E0A90102C0559547958A95E2F78A
S11331F0CA018170898389810F900F90CF91DF91EB
S11332000895EF92FF920F931F93DF93CF930F9242
S1133210CDB7DEB780914E028F5F80934E028091CE
S11332204E02833010F010924E0219821AC0898126
S1133230882F90E0880F991FFC01E15BFD4FE0802F
S1133240F18080914E02082F10E08981A4DF282F9D
S1133250C701800F911FFC013396208389818F5F02
S1133260898390914C028981891708F30F90CF913B
S1133270DF911F910F91FF90EF9008950F931F938B
S1133280DF93CF9300D0CDB7DEB79A838983E0E88C
S1133290F0E01082E1E8F0E089E0808308E810E0E3
S11332A089819A81CC01A0E0B0E0BC01CD010E94EB
S11332B023229B01AC0160E876E988E19BE40E944B
S11332C08F21DC01CB01BC01CD0120E030E040E0E6
S11332D05FE3BDD7DC01CB01BC01CD010E94F72126
S11332E0DC01CB01F80191838083EFE6F0E082E01A
S11332F08083AFE5B0E0EFE5F0E0808180688C93F7
S11333000F900F90CF91DF911F910F9108951F920D
S11333100F920FB60F9200905B000F9211242F931F
S11333203F934F935F936F937F938F939F93AF9349
S1133330BF93EF93FF93DF93CF93CDB7DEB761DFF6
S11333400E94DB0E8091630290916402A091650259
S1133350B09166020196A11DB11D80936302909302
S11333606402A0936502B0936602CF91DF91FF914E
S1133370EF91BF91AF919F918F917F916F915F91E9
S11333804F913F912F910F9000925B000F900FBED1
S11333900F901F901895DF93CF93CDB7DEB788EECB
S11333A093E06CDF84E690E06BD0E3E3F0E08FEF32
S11333B0808384E090E00E949B0882E290E062E0D7
S11333C025DE8093730382E290E060E01FDE809349
S11333D0710382E290E063E019DE8093700382E27D
S11333E090E061E013DE8093740385E290E060E096
S11333F00DDE80936F0381E390E060E007DE80934D
S11334007203109275031092760322D081309105D5
S1133410E1F381E080934D02109263021092640202
S11334201092650210926602CF91DF910895DF93A6
S1133430CF93CDB7DEB78091630290916402A091DF
S11334406502B0916602BC01CD01CF91DF91089570
S1133450DF93CF9300D0CDB7DEB7809172036BDEDC
S1133460813019F41A82198204C081E090E09A83B1
S1133470898389819A810F900F90CF91DF9108956C
S11334802F923F924F925F926F927F928F929F9270
S1133490AF92BF92CF92DF92EF92FF920F931F935E
S11334A0DF93CF9300D000D0CDB7DEB79A83898362
S11334B0ADE2B0E0EDE2F0E0808188638C93E4E972
S11334C0F0E011821082E8E9F0E011821082EAE96A
S11334D0F0E011821082ECE9F0E011821082E0E960
S11334E0F0E08EEF8083E1E9F0E089E1808386E912
S11334F090E09C838B8389819A811C014424552408
S113350066247724430120E836E948E950E060E086
S113351070E080E090E0A22CB32CC42CD52CE62CD7
S1133520F72C082D192D0E946A00222E332E442ECA
S1133530552E662E772E882E992EA22CB32CC42CB1
S1133540D52CE62CF72C082D192D2A2D3B2D4C2D8E
S11335505D2D6E2D7F2D802F912FB2D7DC01CB01F5
S1133560BC01CD0120E030E040E05FE36FD6DC0138
S1133570CB01BC01CD013BD7DC01CB01EB81FC814C
S1133580918380830F900F900F900F90CF91DF91D4
S11335901F910F91FF90EF90DF90CF90BF90AF906D
S11335A09F908F907F906F905F904F903F902F905F
S11335B00895CF92DF92EF92FF920F931F93DF93C0
S11335C0CF930F92CDB7DEB7898389818B3F18F4EF
S11335D08981853A10F488EC89830F2EF8E9CF2E7F
S11335E0DD24F02DE6E9F0E080819181CC01A0E0BA
S11335F0B0E0BC01CD0127D7DC01CB01BC01CD017A
S113360020E030E04FE753E48AD6DC01CB017C01B3
S11336108D018981882F90E0AA2797FDA095BA2F64
S1133620BC01CD0112D79B01AC01C801B701FFD782
S1133630DC01CB01BC01CD0120E030E040E05FE3E0
S113364006D6DC01CB01BC01CD01D1D6DC01CB0116
S1133650F601918380830F90CF91DF911F910F9199
S1133660FF90EF90DF90CF900895DF93CF93CDB785
S1133670DEB780914D02CF91DF9108951F920F9292
S11336800FB60F9200905B000F9211248F939F93BB
S1133690AF93BF93EF93FF93DF93CF93CDB7DEB791
S11336A0809167028823D9F08091670281508093CA
S11336B06702A6ECB0E080916802882F90E0FC01DC
S11336C0E159FD4F80818C93809168028F5F8093D4
S11336D0680280916802803411F410926802CF91DC
S11336E0DF91FF91EF91BF91AF919F918F910F90D7
S11336F000925B000F900FBE0F901F9018951F92C1
S11337000F920FB60F9200905B000F9211242F932B
S11337108F939F93EF93FF93DF93CF930F92CDB744
S1133720DEB7E0ECF0E0808189838981882F90E026
S11337308C7190700097D9F480916902882F90E081
S1133740E6ECF0E02081FC01E155FD4F20838091FF
S113375069028F5F8093690280916902803411F459
S11337601092690280916A028F5F80936A020F90BF
S1133770CF91DF91FF91EF919F918F912F910F90B6
S113378000925B000F900FBE0F901F9018951F9230
S11337900F920FB60F9200905B000F9211248F933B
S11337A09F93AF93BF93EF93FF93DF93CF93CDB7E3
S11337B0DEB780916B028823D9F080916B0281502F
S11337C080936B02AEECB0E080916C02882F90E0A5
S11337D0FC01E151FD4F80818C9380916C028F5FDD
S11337E080936C0280916C02803411F410926C020C
S11337F0CF91DF91FF91EF91BF91AF919F918F9105
S11338000F9000925B000F900FBE0F901F901895C1
S11338101F920F920FB60F9200905B000F9211242B
S11338202F938F939F93EF93FF93DF93CF930F92F5
S1133830CDB7DEB7E8ECF0E0808189838981882FF9
S113384090E08C7190700097D9F480916D02882F6C
S113385090E0EEECF0E02081FC01E15DFC4F208380
S113386080916D028F5F80936D0280916D02803430
S113387011F410926D0280916E028F5F80936E023C
S11338800F90CF91DF91FF91EF919F918F912F91A5
S11338900F9000925B000F900FBE0F901F90189531
S11338A0EF92FF920F931F93DF93CF93CDB7DEB7C1
S11338B0CA54D0400FB6F894DEBF0FBECDBFFE0190
S11338C0E95BFF4F608371838283938380917303E9
S11338D032DC813031F0809171032DDC813009F0CC
S11338E05DC380917503882309F058C3A0DD9B0153
S11338F0AC01FE01E95BFF4F80819181A281B3811C
S113390079018A01E81AF90A0A0B1B0BD801C701CD
S1133910883E03E0900700E0A00700E0B00708F449
S1133920A5C085DD9B01AC01FE01E95BFF4F8081F1
S11339309181A281B38179018A01E81AF90A0A0BFB
S11339401B0BD801C7018D3404E0900700E0A007E9
S113395000E0B00708F08AC083E70E94880FFE01E8
S1133960ED5BFF4F80E090E0AAEFB4E480839183A5
S1133970A283B3838E01015C1F4FFE01ED5BFF4FF9
S1133980608171818281938120E030E44CE155E4CF
S11339904ED6DC01CB01F80180839183A283B383EB
S11339A0FE01FF96608171818281938120E030E085
S11339B040E85FE3B0D488232CF481E090E09EAF2C
S11339C08DAF42C0FE01FF96608171818281938137
S11339D020E03FEF4FE757E426D6181654F5FE01D2
S11339E0ED5BFF4F608171818281938120E030E043
S11339F040E251E41CD6DC01CB01BC01CD01F7D47B
S1133A00DC01CB019EAF8DAF0FC08AEF90E09CAF7D
S1133A108BAF8BAD9CAD0197F1F79CAF8BAF8DADA8
S1133A209EAD01979EAF8DAF8DAD9EAD009769F7AA
S1133A3015C0FE01FF966081718182819381D7D484
S1133A40DC01CB019EAF8DAF8DAD9EAD9AAF89AF3A
S1133A5089AD9AAD0197F1F79AAF89AF85E69FEFEB
S1133A606AE540E050E00E94A11098C2E0DC9B01AE
S1133A70AC01FE01E95BFF4F80819181A281B3819A
S1133A8079018A01E81AF90A0A0B1B0BD801C7014C
S1133A908C3404E0900700E0A00700E0B00708F4CD
S1133AA092C0C5DC9B01AC01FE01E95BFF4F808144
S1133AB09181A281B38179018A01E81AF90A0A0B7A
S1133AC01B0BD801C701813B04E0900700E0A0076D
S1133AD000E0B00708F077C083E70E94880F80E019
S1133AE090E0AAEFB4E48DAB9EABAFABB8AF6DA9D9
S1133AF07EA98FA998AD20E030E44CE155E497D538
S1133B00DC01CB0189AB9AABABABBCAB69A97AA99D
S1133B108BA99CA920E030E040E85FE3FCD3882334
S1133B202CF481E090E098AB8FA73BC069A97AA9F7
S1133B308BA99CA920E03FEF4FE757E474D51816F2
S1133B403CF56DA97EA98FA998AD20E030E040E254
S1133B5051E46DD5DC01CB01BC01CD0148D4DC01BD
S1133B60CB0198AB8FA70FC08AEF90E09EA78DA7DB
S1133B708DA59EA50197F1F79EA78DA78FA598A95E
S1133B80019798AB8FA78FA598A9009769F713C0E1
S1133B9069A97AA98BA99CA92AD4DC01CB0198AB89
S1133BA08FA78FA598A99CA78BA78BA59CA50197E8
S1133BB0F1F79CA78BA782E79FEF6AE540E050E00E
S1133BC00E94A110EBC133DC9B01AC01FE01E95B57
S1133BD0FF4F80819181A281B38179018A01E81A22
S1133BE0F90A0A0B1B0BD801C701803B04E09007BC
S1133BF000E0A00700E0B00708F492C018DC9B01C5
S1133C00AC01FE01E95BFF4F80819181A281B38108
S1133C1079018A01E81AF90A0A0B1B0BD801C701BA
S1133C20853105E0900700E0A00700E0B00708F048
S1133C3077C083E70E94880F80E090E0AAEFB4E4A5
S1133C408FA398A7A9A7BAA76FA178A589A59AA5B4
S1133C5020E030E44CE155E4EAD4DC01CB018BA351
S1133C609CA3ADA3BEA36BA17CA18DA19EA120E0CA
S1133C7030E040E85FE34FD388232CF481E090E008
S1133C809AA389A33BC06BA17CA18DA19EA120E036
S1133C903FEF4FE757E4C7D418163CF56FA178A55A
S1133CA089A59AA520E030E040E251E4C0D4DC01CB
S1133CB0CB01BC01CD019BD3DC01CB019AA389A329
S1133CC00FC08AEF90E098A38F8F8F8D98A10197F2
S1133CD0F1F798A38F8F89A19AA101979AA389A339
S1133CE089A19AA1009769F713C06BA17CA18DA14A
S1133CF09EA17DD3DC01CB019AA389A389A19AA1BA
S1133D009E8F8D8F8D8D9E8D0197F1F79E8F8D8F58
S1133D1083E89FEF6AE540E050E00E94A1103EC1B5
S1133D2086DB9B01AC01FE01E95BFF4F8081918141
S1133D30A281B38179018A01E81AF90A0A0B1B0BE3
S1133D40D801C701843105E0900700E0A00700E036
S1133D50B00708F492C06BDB9B01AC01FE01E95B88
S1133D60FF4F80819181A281B38179018A01E81A90
S1133D70F90A0A0B1B0BD801C701893705E0900724
S1133D8000E0A00700E0B00708F077C083E70E94D6
S1133D90880F80E090E0AAEFB4E4898F9A8FAB8F0C
S1133DA0BC8F698D7A8D8B8D9C8D20E030E44CE145
S1133DB055E43DD4DC01CB018D8B9E8BAF8BB88F4A
S1133DC06D897E898F89988D20E030E040E85FE33B
S1133DD0A2D288232CF481E090E09C8B8B8B3BC097
S1133DE06D897E898F89988D20E03FEF4FE757E4F6
S1133DF01AD418163CF5698D7A8D8B8D9C8D20E034
S1133E0030E040E251E413D4DC01CB01BC01CD012C
S1133E10EED2DC01CB019C8B8B8B0FC08AEF90E040
S1133E209A8B898B89899A890197F1F79A8B898B67
S1133E308B899C8901979C8B8B8B8B899C890097A0
S1133E4069F713C06D897E898F89988DD0D2DC0182
S1133E50CB019C8B8B8B8B899C89988B8F878F85CF
S1133E6098890197F1F7988B8F8786EA9FEF6AE527
S1133E7040E050E00E94A11091C0D9DA9B01AC014E
S1133E80FE01E95BFF4F80819181A281B3817901B9
S1133E908A01E81AF90A0A0B1B0BD801C7018634F8
S1133EA005E0900700E0A00700E0B00708F476C042
S1133EB083E70E94880F80E090E0AAEFB4E48B8748
S1133EC09C87AD87BE876B857C858D859E8520E02C
S1133ED030E44CE155E4ABD3DC01CB018F8398870C
S1133EE0A987BA876F81788589859A8520E030E033
S1133EF040E85FE310D288232CF481E090E09E83B5
S1133F008D833BC06F81788589859A8520E03FEF5A
S1133F104FE757E488D318163CF56B857C858D856F
S1133F209E8520E030E040E251E481D3DC01CB0106
S1133F30BC01CD015CD2DC01CB019E838D830FC01B
S1133F408AEF90E09C838B838B819C810197F1F7AE
S1133F509C838B838D819E8101979E838D838D812C
S1133F609E81009769F713C06F81788589859A854A
S1133F703ED2DC01CB019E838D838D819E819A8309
S1133F80898389819A810197F1F79A83898380EBE8
S1133F909FEF6AE540E050E00E94A11080E0C65B1C
S1133FA0DF4F0FB6F894DEBF0FBECDBFCF91DF91C8
S1133FB01F910F91FF90EF900895DF93CF93CDB7AA
S1133FC0DEB7A6970FB6F894DEBF0FBECDBF18A21A
S1133FD01F8E81E08D8F1AA219A21CA21BA21EA201
S1133FE01DA249A15AA16BA17CA18DA19EA10E94F1
S1133FF011138D8D882F90E081309105D1F78F8D2D
S113400088A31FC188A1282F30E0C901880F991FF8
S1134010880F991F820F931FFC01E05FFD4F4081C1
S1134020518188A1282F30E0C901880F991F880F7A
S1134030991F820F931FFC01EE5EFD4F608188A1E2
S1134040282F30E0C901880F991F880F991F820F0C
S1134050931FFC01ED5EFD4F808191819C01CA019B
S1134060A9010E94A1108E8F88A1882309F0E0C0C5
S113407080E090E0AAE7B4E4898F9A8FAB8FBC8F7D
S1134080698D7A8D8B8D9C8D20E030E44CE155E474
S1134090CED2DC01CB018D8B9E8BAF8BB88F6D891B
S11340A07E898F89988D20E030E040E85FE333D14A
S11340B088232CF481E090E09C8B8B8B3BC06D8932
S11340C07E898F89988D20E03FEF4FE757E4ABD28C
S11340D018163CF5698D7A8D8B8D9C8D20E030E02F
S11340E040E251E4A4D2DC01CB01BC01CD017FD17B
S11340F0DC01CB019C8B8B8B0FC08AEF90E09A8BF9
S1134100898B89899A890197F1F79A8B898B8B8995
S11341109C8901979C8B8B8B8B899C89009769F771
S113412013C06D897E898F89988D61D1DC01CB01A3
S11341309C8B8B8B8B899C89988B8F878F85988997
S11341400197F1F7988B8F8788E490E062E340E071
S113415050E00E94D61480E090E0AAE7B4E48B8794
S11341609C87AD87BE876B857C858D859E8520E089
S113417030E44CE155E45BD2DC01CB018F839887BA
S1134180A987BA876F81788589859A8520E030E090
S113419040E85FE3C0D088232CF481E090E09E8364
S11341A08D833BC06F81788589859A8520E03FEFB8
S11341B04FE757E438D218163CF56B857C858D851E
S11341C09E8520E030E040E251E431D2DC01CB01B5
S11341D0BC01CD010CD1DC01CB019E838D830FC0CA
S11341E08AEF90E09C838B838B819C810197F1F70C
S11341F09C838B838D819E8101979E838D838D818A
S11342009E81009769F71AC06F81788589859A85A0
S1134210EED0DC01CB019E838D838D819E819A83B8
S1134220898389819A810197F1F79A83898306C0EA
S113423088A1813019F48AEFBCD9FFCF88A18F5FA0
S113424088A388A1823008F4DDCED3CE5058BB2792
S1134250AA270ED0AEC19FD130F0A4D120F031F402
S11342609F3F11F41EF494C10EF4E095E7FB8AC15C
S1134270E92FB0D180F3BA17620773078407950753
S113428018F071F49EF5C8C10EF4E0950B2EBA2F08
S1134290A02D0B01B90190010C01CA01A001112448
S11342A0FF27591B99F0593F50F4503E68F11A16F4
S11342B0F040A22F232F342F4427585FF3CF469585
S11342C037952795A795F0405395C9F77EF41F16A7
S11342D0BA0B620B730B840BBAF09150A1F0FF0F71
S11342E0BB1F661F771F881FC2F70EC0BA0F621F5D
S11342F0731F841F48F4879577956795B795F7954D
S11343009E3F08F0B3CF9395880F08F09927EE0FDE
S113431097958795089512D108F481E008950CD0FB
S113432048C140D140F037D130F021F45F3F19F05B
S113433029C1511172C12CC14DD198F39923C9F3EC
S11343405523B1F3951B550BBB27AA276217730797
S1134350840738F09F5F5F4F220F331F441FAA1F4B
S1134360A9F333D00E2E3AF0E0E830D0915050400B
S1134370E695001CCAF729D0FE2F27D0660F771FB9
S1134380881FBB1F261737074807AB07B0E809F09B
S1134390BB0B802DBF01FF2793585F4F2AF09E3F30
S11343A0510568F0EFC039C15F3FECF3983EDCF390
S11343B0869577956795B795F7959F5FC9F7880FA9
S11343C0911D9695879597F90895E1E0660F771FFB
S11343D0881FBB1F621773078407BA0720F0621B8C
S11343E0730B840BBA0BEE1F88F7E0950895FAD08F
S11343F088F09F5790F0B92F9927B751A0F0D1F0CA
S1134400660F771F881F991F1AF0BA95C9F712C053
S1134410B13081F001D1B1E00895FEC0672F782F4B
S11344208827B85F39F0B93FCCF3869577956795BF
S1134430B395D9F73EF490958095709561957F4F2B
S11344408F4F9F4F0895E89409C097FB3EF49095D1
S11344508095709561957F4F8F4F9F4F9923A9F059
S1134460F92F96E9BB279395F695879577956795E8
S1134470B795F111F8CFFAF4BB0F11F460FF1BC02C
S11344806F5F7F4F8F4F9F4F16C0882311F096E9BF
S113449011C0772321F09EE8872F762F05C066236D
S11344A071F096E8862F70E060E02AF09A95660F26
S11344B0771F881FDAF7880F9695879597F90895DF
S11344C0E894F92F96EBFF2381F0121613061406D5
S11344D0440B9395F6958795779567955795404046
S11344E0FF23B9F71BC099270895882351F49850E6
S11344F0D2F7872B762F652F542F432F322F20E0AE
S1134500B1F3121613061406440B88233AF09A9555
S1134510440F551F661F771F881FCAF755234AF497
S1134520440F551F11F460FF04C06F5F7F4F8F4F1E
S11345309F4F880F9695879597F90895990F0008CE
S1134540550FAA0BE0E8FEEF16161706E807F90761
S1134550C0F012161306E407F50798F0621B730BFC
S1134560840B950B39F40A2661F0232B242B252B7D
S113457021F408950A2609F4A140A6958FEF811D20
S1134580811D089597F99F6780E870E060E00895C1
S11345909FEF80EC089500240A9416161706180657
S11345A00906089500240A94121613061406050633
S11345B00895092E0394000C11F4882352F0BB0FC4
S11345C040F4BF2B11F460FF04C06F5F7F4F8F4F27
S11345D09F4F089557FD9058440F551F59F05F3F62
S11345E071F04795880F97FB991F61F09F3F79F011
S11345F087950895121613061406551FF2CF469593
S1134600F1DF08C0161617061806991FF1CF869514
S11346107105610508940895E894BB2766277727F8
S1134620CB0197F908958ADF08F48FEF08950BD032
S1134630C0CFB1DF28F0B6DF18F0952309F0A2CF80
S1134640A7CF1124EACFC6DFA0F3959FD1F3950F2E
S113465050E0551F629FF001729FBB27F00DB11D02
S1134660639FAA27F00DB11DAA1F649F6627B00D92
S1134670A11D661F829F2227B00DA11D621F739F7B
S1134680B00DA11D621F839FA00D611D221F749F89
S11346903327A00D611D231F849F600D211D822FD0
S11346A0762F6A2F11249F5750408AF0E1F0882317
S11346B04AF0EE0FFF1FBB1F661F771F881F915024
S11346C05040A9F79E3F510570F05CCFA6CF5F3FE5
S11346D0ECF3983EDCF3869577956795B795F79557
S11346E0E7959F5FC1F7FE2B880F911D96958795DF
S11346F097F90895629FD001739FF001829FE00DA6
S1134700F11D649FE00DF11D929FF00D839FF00D4C
S1134710749FF00D659FF00D9927729FB00DE11DF8
S1134720F91F639FB00DE11DF91FBD01CF011124D5
S11347300895A1E21A2EAA1BBB1BFD010DC0AA1FDE
S1134740BB1FEE1FFF1FA217B307E407F50720F0F6
S1134750A21BB30BE40BF50B661F771F881F991F71
S11347601A9469F760957095809590959B01AC01BA
S1134770BD01CF0108952F923F924F925F926F92A5
S11347807F928F929F92AF92BF92CF92DF92EF92DD
S1134790FF920F931F93CF93DF93CDB7DEB7CA1B5E
S11347A0DB0B0FB6F894DEBF0FBECDBF09942A8889
S11347B0398848885F846E847D848C849B84AA8431
S11347C0B984C884DF80EE80FD800C811B81AA81BE
S11347D0B981CE0FD11D0FB6F894DEBF0FBECDBF89
S11347E0ED0108950F931F93CF93DF93689F80018A
S11347F0699F100D789F100D1124C8010DD0EC0194
S1134800009721F060E070E0A8010BD1CE01DF91A8
S1134810CF911F910F910895CF93DF93BC01823004
S1134820910510F462E070E0A0917903B0917A03ED
S1134830ED01E0E0F0E040E050E021C088819981A2
S11348408617970769F48A819B81309719F09383BF
S1134850828304C090937A0380937903FE0134C069
S11348606817790738F44115510519F0841795072D
S113487008F4AC01FE018A819B819C01E901209727
S1134880E9F641155105A9F1CA01861B970B049756
S113489008F4BA01E0E0F0E02AC08D919C911197F0
S11348A084179507F9F46417750781F412968D91AE
S11348B09C911397309719F09383828304C090934B
S11348C07A0380937903FD0132964FC0CA01861B97
S11348D0970BFD01E80FF91F6193719302978D9374
S11348E09C9343C0FD01828193819C01D90110975F
S11348F0A1F68091770390917803892B41F48091FC
S1134900020290910302909378038093770340917D
S11349100402509105024115510541F44DB75EB7AB
S11349208091000290910102481B590B209177035A
S11349303091780324173507B0F4CA01821B930B16
S11349408617970780F0AB014E5F5F4F841795077A
S113495050F0420F531F5093780340937703F901AB
S11349606193719302C0E0E0F0E0CF01DF91CF9159
S11349700895CF93DF93009709F450C0EC01229778
S11349801B821A82A0917903B0917A03109709F1DE
S113499040E050E0AC17BD0708F1BB83AA83FE01D9
S11349A021913191E20FF31FAE17BF0779F48D9176
S11349B09C911197280F391F2E5F3F4F398328830D
S11349C012968D919C9113979B838A83411551056F
S11349D071F4D0937A03C093790320C012968D9119
S11349E09C911397AD01009711F0DC01D3CFFA012C
S11349F0D383C28321913191E20FF31FCE17DF07D6
S1134A0069F488819981280F391F2E5F3F4FFA017D
S1134A10318320838A819B8193838283DF91CF9129
S1134A200895DC0101C06D9341505040E0F70895B2
S1074A30F894FFCF24
S1134A34000102020303030304040404040404043D
S1134A44050505050505050505050505050505050E
S1134A5406060606060606060606060606060606EE
S1134A6406060606060606060606060606060606DE
S1134A7407070707070707070707070707070707BE
S1134A8407070707070707070707070707070707AE
S1134A94070707070707070707070707070707079E
S1134AA4070707070707070707070707070707078E
S1134AB4080808080808080808080808080808086E
S1134AC4080808080808080808080808080808085E
S1134AD4080808080808080808080808080808084E
S1134AE4080808080808080808080808080808083E
S1134AF4080808080808080808080808080808082E
S1134B04080808080808080808080808080808081D
S1134B14080808080808080808080808080808080D
S1134B2408080808080808080808080808080808FD
S1134B3420007B0300002BFF50DC092BFD32000016
S10D4B4430FF50501C2BFD28000028
S9030000FC
