S01700004D616C695F526F626F745F323031352E73726563FE
S113000049C0000065C0000063C0000061C000007A
S11300105FC000005DC000005BC0000059C000006C
S113002057C0000055C0000053C0000051C000007C
S11300300C943D0F4DC000004BC0000049C00000AF
S113004047C0000045C0000044C0000041C000009B
S11300503FC000000C94F7103BC000000C94B61095
S113006037C0000035C0000033C0000031C00000BC
S11300702FC000002DC000002BC0000029C00000CC
S11300800C94801125C000000C943F1121C0000085
S11300901FC0000011241FBECFEFD0E1DEBFCDBFD3
S11300A011E0A0E0B1E0E4E7FFE200E00BBF02C032
S11300B007900D92AA31B107D9F712E0AAE1B1E095
S11300C001C01D92AB37B107E1F73ED40C94B817C9
S11300D097CF1F920F920FB60F9200905B000F9272
S11300E011242F933F934F935F938F939F93AF93D9
S11300F0BF93EF93FF93DF93CF9300D000D0CDB79E
S1130100DEB7EDEEF0E080818C831B829CC0EDEEC7
S1130110F0E08B818295807F8083EEEEF0E0808139
S1130120829586958770882F90E0817090708823DF
S113013009F46EC0EFEEF0E080E88083AEEEB0E04C
S1130140EEEEF0E080818F7D8C93E2EFF0E0808131
S1130150829586958770282FE3EFF0E08081882FC1
S113016090E0880F991F880F991F880F991F822B81
S11301708A8319822AC08A81282F30E081E090E0A6
S1130180821B930B880F991F909581959F4FFC01BB
S1130190E65EFE4F408151818A81882F90E001976D
S11301A0FC01E25DFE4F8081282F30E08981882F99
S11301B090E0820F931FDA01A80FB91FEAEFF0E075
S11301C080818C9389818F5F89838981883098F2BB
S11301D08A81882F90E00197FC01E25DFE4F8081C7
S11301E08F5F80838081853041F48A81882F90E0FD
S11301F00197FC01E25DFE4F10828A81882F90E016
S11302000197FC01EE5BFE4F80818F5F80831FC0EE
S1130210EEEEF0E080818295869586958370882F36
S113022090E081709070882359F0EFEEF0E0108236
S1130230AEEEB0E0EEEEF0E080818F7B8C9307C0F1
S11302408B818F5F8B838B818F3008F460CFEDEED1
S1130250F0E08C818083AAEDB0E0EAEDF0E08081EB
S11302608C930F900F900F900F90CF91DF91FF918F
S1130270EF91BF91AF919F918F915F914F913F917A
S11302802F910F9000925B000F900FBE0F901F9064
S11302901895DF93CF9300D0CDB7DEB7E8EDF0E04B
S11302A081E080831A8232C0EDEEF0E08A8182958B
S11302B0807F8083EEEEF0E01082EFEEF0E01082BB
S11302C0E3EFF0E01082E2EFF0E01082E1EFF0E023
S11302D01082E0EFF0E01082E7EFF0E01082E6EF4A
S11302E0F0E01082E5EFF0E01082E4EFF0E010823D
S11302F0198206C0EAEFF0E0108289818F5F89835A
S113030089818830B8F38A818F5F8A838A818F30AC
S113031058F2E8EDF0E082E08083E2EEF0E081E084
S11303208083E3EEF0E088E08083E4EEF0E08EE5A5
S11303308083E5EEF0E01082EBEDF0E080EB80836B
S1130340EFEDF0E08FE78083EEEDF0E08FEF808358
S113035078940F900F90CF91DF910895DF93CF930E
S113036000D000D00F92CDB7DEB79C838B83EDEE27
S1130370F0E080818983E9EDF0E0808182958F70DF
S1130380882F90E0817090708823A9F7E9EDF0E060
S11303908081869586958695882F90E081709070EF
S11303A0882349F71A823FC0EDEEF0E08A818295F6
S11303B0807F8083EFEEF0E080818295869586953C
S11303C08370882369F5EFEEF0E08FE08083E3EF3C
S11303D0F0E08B819C819070969587959695879592
S11303E0969587958083E2EFF0E08B818295880F64
S11303F0807E8083E6EFF0E080EE8083E7EFF0E03C
S11304008FEF8083AFEEB0E0EFEEF0E080818068A4
S11304108C93EDEEF0E08981808381E08D830CC0C4
S11304208A818F5F8A838A818F3008F4BDCFEDEE95
S1130430F0E0898180831D828D810F900F900F9051
S11304400F900F90CF91DF9108950F931F93DF9337
S1130450CF9300D0CDB7DEB78A831BDF198236C0B5
S11304608981882F90E0019679DF8981882F90E037
S1130470880F991F8C01065E1E4F85E090E061E0B5
S113048070E00E949216F801918380838981482F3D
S113049050E08981282F30E08981882F90E0FC0189
S11304A0EE5BFE4F1082FC01EE5BFE4F8081F90192
S11304B0E85CFE4F8083F901E85CFE4F8081FA011D
S11304C0E25DFE4F808389818F5F898399818A8170
S11304D0981730F20F900F90CF91DF911F910F91E9
S11304E00895DF93CF9300D000D0CDB7DEB79B83C0
S11304F08A836C838C81882F90E00197FC01EE5BEA
S1130500FE4F80818823B1F3198230C08981282F5E
S113051030E08A819B81DC01A20FB31F8C81282FDC
S113052030E081E090E0821B930B880F991F909537
S113053081959F4FFC01E65EFE4F408151818C8185
S1130540882F90E00197FC01E85CFE4F8081282F02
S113055030E08981882F90E0820F931FFA01E80F21
S1130560F91F80818C9389818F5F89838981883089
S113057068F28C81882F90E00197FC01E85CFE4FC3
S113058080818F5F80838081853041F48C81882FC6
S113059090E00197FC01E85CFE4F10828C81882F6B
S11305A090E09C0121503040F901EE5BFE4F8081C8
S11305B08150F901EE5BFE4F808380E00F900F9035
S11305C00F900F90CF91DF910895DF93CF93CDB724
S11305D0DEB727970FB6F894DEBF0FBECDBF9D835D
S11305E08C836E83E9EDF0E0808182958F70882F93
S11305F090E0817090708823A9F7E9EDF0E08081A4
S1130600869586958695882F90E0817090708823D2
S113061049F7EDEEF0E0808189831A8212C0EDEE95
S1130620F0E08A818295807F8083EFEEF0E0808124
S11306308295869586958370882331F08A818F5FB1
S11306408A838A818F3058F38A818F3019F48FEF2F
S11306508F8332C0E2EFF0E08E818295880F807E36
S11306608083E3EFF0E08E8186958695869580837E
S1130670EFEEF0E088E080831B820FC0AAEFB0E0C9
S11306808B81282F30E08C819D81FC01E20FF31FC8
S113069080818C938B818F5F8B838B81883070F307
S11306A0AFEEB0E0EFEEF0E0808180648C93EDEE8D
S11306B0F0E0898180831F828F8127960FB6F8949A
S11306C0DEBF0FBECDBFCF91DF910895DF93CF93EF
S11306D000D000D00F92CDB7DEB769837A838B83C5
S11306E09C83809173020E94540E813031F080917A
S11306F071020E94540E813049F48091750288235E
S113070011F483E7B0D181E08D8301C01D828D8116
S11307100F900F900F900F900F90CF91DF9108954D
S1130720DF93CF93CDB7DEB76A970FB6F894DEBFE9
S11307300FBECDBF1A8A198A81E08F871C8A1B8A53
S11307401E8A1D8A188E1F8A4B895C896D897E8951
S11307508F89988D0ED58F85282F30E03A8F298F79
S1130760898D9A8D8130910509F486C0298D3A8D41
S11307702330310509F473C0EECF80E090E0A8EC9B
S1130780B2E48B879C87AD87BE876B857C858D851E
S11307909E8520E030E44CE155E40E942F16DC01F4
S11307A0CB018F839887A987BA876F8178858985DC
S11307B09A8520E030E040E85FE30E94E11488235A
S11307C02CF481E090E09E838D833FC06F81788517
S11307D089859A8520E03FEF4FE757E40E942B1666
S11307E018164CF56B857C858D859E8520E030E060
S11307F040E251E40E942F16DC01CB01BC01CD0183
S11308000E944D15DC01CB019E838D830FC08AEFBE
S113081090E09C838B838B819C810197F1F79C836F
S11308208B838D819E8101979E838D838D819E8193
S1130830009769F714C06F81788589859A850E942D
S11308404D15DC01CB019E838D838D819E819A831E
S1130850898389819A810197F1F79A83898360E07A
S113086070E080E090E032DF813009F486CF81E0EF
S11308708F878A89898B6FCF89898A8B42C08A89BD
S1130880282F30E0C901880F991F880F991F820F04
S1130890931FFC01EA5FFE4F408151818A89282F12
S11308A030E0C901880F991F880F991F820F931F89
S11308B0FC01E85FFE4F60818A89282F30E0C9017E
S11308C0880F991F880F991F820F931FFC01E75F00
S11308D0FE4F20813181CA01A901DED1888B88892C
S11308E0813029F483E08F878A89898B34CF8A8980
S11308F0882321F08A89813009F4FFCF8A898F5FA8
S11309008A8B8A89823008F4BACF25CFDF93CF93BC
S1130910CDB7DEB70E94AD10813099F40E94CF0F9D
S1130920DC01CB0181392FE5920721E0A20720E009
S1130930B20738F0E4E3F0E08FEF808383E593D0EF
S1130940FFCFCF91DF910895DF93CF93CDB7DEB77B
S11309502E970FB6F894DEBF0FBECDBF0E94810F55
S113096080E090E0A8ECB2E48B879C87AD87BE87DB
S11309706B857C858D859E8520E030E44CE155E4D3
S11309800E942F16DC01CB018F839887A987BA8731
S11309906F81788589859A8520E030E040E85FE3BF
S11309A00E94E11488232CF481E090E09E838D83DF
S11309B03FC06F81788589859A8520E03FEF4FE7B6
S11309C057E40E942B1618164CF56B857C858D8593
S11309D09E8520E030E040E251E40E942F16DC01C5
S11309E0CB01BC01CD010E944D15DC01CB019E83DE
S11309F08D830FC08AEF90E09C838B838B819C81D5
S1130A000197F1F79C838B838D819E8101979E834F
S1130A108D838D819E81009769F714C06F817885DD
S1130A2089859A850E944D15DC01CB019E838D83B7
S1130A308D819E819A83898389819A810197F1F7B7
S1130A409A83898380916F020E94540E882311F443
S1130A5067DEF8CF80916F020E94540E813091F7C7
S1130A600E949012EFCFDF93CF93CDB7DEB7A59757
S1130A700FB6F894DEBF0FBECDBF8DA38DA18D8FB1
S1130A8072C080E090E0A8E4B2E4898F9A8FAB8FC3
S1130A90BC8F698D7A8D8B8D9C8D20E030E44CE188
S1130AA055E40E942F16DC01CB018D8B9E8BAF8BFE
S1130AB0B88F6D897E898F89988D20E030E040E879
S1130AC05FE30E94E11488232CF481E090E09C8B86
S1130AD08B8B3FC06D897E898F89988D20E03FEF95
S1130AE04FE757E40E942B1618164CF5698D7A8D42
S1130AF08B8D9C8D20E030E040E251E40E942F1663
S1130B00DC01CB01BC01CD010E944D15DC01CB0100
S1130B109C8B8B8B0FC08AEF90E09A8B898B898991
S1130B209A890197F1F79A8B898B8B899C89019714
S1130B309C8B8B8B8B899C89009769F714C06D897A
S1130B407E898F89988D0E944D15DC01CB019C8B89
S1130B508B8B8B899C89988B8F878F85988901973C
S1130B60F1F7988B8F87CE014D9663EC2EDD8823A9
S1130B7009F087CF80E58D8F72C080E090E0A8E413
S1130B80B2E48B879C87AD87BE876B857C858D851A
S1130B909E8520E030E44CE155E40E942F16DC01F0
S1130BA0CB018F839887A987BA876F8178858985D8
S1130BB09A8520E030E040E85FE30E94E114882356
S1130BC02CF481E090E09E838D833FC06F81788513
S1130BD089859A8520E03FEF4FE757E40E942B1662
S1130BE018164CF56B857C858D859E8520E030E05C
S1130BF040E251E40E942F16DC01CB01BC01CD017F
S1130C000E944D15DC01CB019E838D830FC08AEFBA
S1130C1090E09C838B838B819C810197F1F79C836B
S1130C208B838D819E8101979E838D838D819E818F
S1130C30009769F714C06F81788589859A850E9429
S1130C404D15DC01CB019E838D838D819E819A831A
S1130C50898389819A810197F1F79A838983CE01E7
S1130C604D9663ECB2DC882309F087CFCE014D9614
S1130C7061E037DC8D8D8D3409F400CF8D8D8235A4
S1130C8009F4FCCE80E0A5960FB6F894DEBF0FBE43
S1130C90CDBFCF91DF910895DF93CF93CDB7DEB76A
S1130CA0CB54D0400FB6F894DEBF0FBECDBFFE01CB
S1130CB0EA5BFF4F91838083FE01E85BFF4F608313
S1130CC0FE01E75BFF4F5183408386E58EAFFE0153
S1130CD0E85BFF4F80818FAF72C080E090E0A8E4B2
S1130CE0B2E48DAB9EABAFABB8AF6DA97EA98FA9B3
S1130CF098AD20E030E44CE155E40E942F16DC016D
S1130D00CB0189AB9AABABABBCAB69A97AA98BA974
S1130D109CA920E030E040E85FE30E94E1148823CE
S1130D202CF481E090E098AB8FA73FC069A97AA921
S1130D308BA99CA920E03FEF4FE757E40E942B16B4
S1130D4018164CF56DA97EA98FA998AD20E030E066
S1130D5040E251E40E942F16DC01CB01BC01CD011D
S1130D600E944D15DC01CB0198AB8FA70FC08AEF11
S1130D7090E09EA78DA78DA59EA50197F1F79EA74C
S1130D808DA78FA598A9019798AB8FA78FA598A930
S1130D90009769F714C069A97AA98BA99CA90E9434
S1130DA04D15DC01CB0198AB8FA78FA598A99CA703
S1130DB08BA78BA59CA50197F1F79CA78BA7CE01C8
S1130DC0CE9663EC02DC882309F087CF84E48EAFEF
S1130DD0FE01EA5BFF4F80819181892F990F990B66
S1130DE08FAFFE01EA5BFF4F8081FE01E05CFF4FA5
S1130DF0808372C080E090E0A8E4B2E48FA398A757
S1130E00A9A7BAA76FA178A589A59AA520E030E47F
S1130E104CE155E40E942F16DC01CB018BA39CA36B
S1130E20ADA3BEA36BA17CA18DA19EA120E030E067
S1130E3040E85FE30E94E11488232CF481E090E011
S1130E409AA389A33FC06BA17CA18DA19EA120E0A0
S1130E503FEF4FE757E40E942B1618164CF56FA18D
S1130E6078A589A59AA520E030E040E251E40E94EB
S1130E702F16DC01CB01BC01CD010E944D15DC0114
S1130E80CB019AA389A30FC08AEF90E098A38F8F18
S1130E908F8D98A10197F1F798A38F8F89A19AA1BB
S1130EA001979AA389A389A19AA1009769F714C00D
S1130EB06BA17CA18DA19EA10E944D15DC01CB01EB
S1130EC09AA389A389A19AA19E8F8D8F8D8D9E8DC2
S1130ED00197F1F79E8F8D8FCE01CE9663EC75DB73
S1130EE0882309F087CF0E94CF0FAA2797FDA095EA
S1130EF0BA2F89AF9AAFABAFBCAF80E58EAF72C0EB
S1130F0080E090E0A8E4B2E4898F9A8FAB8FBC8F25
S1130F10698D7A8D8B8D9C8D20E030E44CE155E415
S1130F200E942F16DC01CB018D8B9E8BAF8BB88F6B
S1130F306D897E898F89988D20E030E040E85FE3F9
S1130F400E94E11488232CF481E090E09C8B8B8B2D
S1130F503FC06D897E898F89988D20E03FEF4FE7F0
S1130F6057E40E942B1618164CF5698D7A8D8B8DDB
S1130F709C8D20E030E040E251E40E942F16DC0119
S1130F80CB01BC01CD010E944D15DC01CB019C8B32
S1130F908B8B0FC08AEF90E09A8B898B89899A8911
S1130FA00197F1F79A8B898B8B899C8901979C8B8C
S1130FB08B8B8B899C89009769F714C06D897E8916
S1130FC08F89988D0E944D15DC01CB019C8B8B8BF6
S1130FD08B899C89988B8F878F8598890197F1F7E6
S1130FE0988B8F87CE01CE9663ECEFDA882309F0D5
S1130FF087CFCE01CE9661E074DA8EAD893421F4C8
S11310002C961FAE2C97A8C08EAD833529F482E0B0
S11310102C968FAF2C97A0C08EAD853429F481E037
S11310202C968FAF2C9798C080E090E0A8E4B2E4AF
S11310308B879C87AD87BE876B857C858D859E85D8
S113104020E030E44CE155E40E942F16DC01CB0192
S11310508F839887A987BA876F81788589859A85D0
S113106020E030E040E85FE30E94E11488232CF4A0
S113107081E090E09E838D833FC06F817885898570
S11310809A8520E03FEF4FE757E40E942B1618168D
S11310904CF56B857C858D859E8520E030E040E2B3
S11310A051E40E942F16DC01CB01BC01CD010E944A
S11310B04D15DC01CB019E838D830FC08AEF90E038
S11310C09C838B838B819C810197F1F79C838B8319
S11310D08D819E8101979E838D838D819E81009752
S11310E069F714C06F81788589859A850E944D15AA
S11310F0DC01CB019E838D838D819E819A838983BC
S113110089819A810197F1F79A838983FE01E75BCC
S1131110FF4F80819181009709F4EFCEFE01E75BD8
S1131120FF4F89AD9AADABADBCAD0190F081E02D20
S1131130BC01CD0109958DAF8DAD813029F481E0DD
S11311402C968FAF2C9708C08DAD823009F0D5CE88
S113115083E02C968FAF2C972C968FAD2C97C55B84
S1131160DF4F0FB6F894DEBF0FBECDBFCF91DF9136
S11311700895DF93CF93CDB7DEB7E3970FB6F89416
S1131180DEBF0FBECDBF4BA75CA76DA77EA78FA701
S113119098AB89E48D8F8BA59CA5892F990F990B0A
S11311A08E8F8BA59CA58F8F8DA59EA5892F990FBA
S11311B0990B88A38DA59EA589A31AA28FA598A98A
S11311C08BA372C080E090E0A8E4B2E4898F9A8F88
S11311D0AB8FBC8F698D7A8D8B8D9C8D20E030E434
S11311E04CE155E40E942F16DC01CB018D8B9E8BC4
S11311F0AF8BB88F6D897E898F89988D20E030E020
S113120040E85FE30E94E11488232CF481E090E03D
S11312109C8B8B8B3FC06D897E898F89988D20E054
S11312203FEF4FE757E40E942B1618164CF5698DD3
S11312307A8D8B8D9C8D20E030E040E251E40E9459
S11312402F16DC01CB01BC01CD010E944D15DC0140
S1131250CB019C8B8B8B0FC08AEF90E09A8B898B90
S113126089899A890197F1F79A8B898B8B899C8953
S113127001979C8B8B8B8B899C89009769F714C091
S11312806D897E898F89988D0E944D15DC01CB0173
S11312909C8B8B8B8B899C89988B8F878F85988966
S11312A00197F1F7988B8F87CE014D9663EC8DD91A
S11312B0882309F087CF80E58D8F72C080E090E0AD
S11312C0A8E4B2E48B879C87AD87BE876B857C8559
S11312D08D859E8520E030E44CE155E40E942F1674
S11312E0DC01CB018F839887A987BA876F817885C2
S11312F089859A8520E030E040E85FE30E94E114AC
S113130088232CF481E090E09E838D833FC06F811D
S1131310788589859A8520E03FEF4FE757E40E945E
S11313202B1618164CF56B857C858D859E8520E0E3
S113133030E040E251E40E942F16DC01CB01BC01F5
S1131340CD010E944D15DC01CB019E838D830FC01E
S11313508AEF90E09C838B838B819C810197F1F7CA
S11313609C838B838D819E8101979E838D838D8148
S11313709E81009769F714C06F81788589859A8565
S11313800E944D15DC01CB019E838D838D819E814E
S11313909A83898389819A810197F1F79A83898352
S11313A0CE014D9663EC11D9882309F087CFCE0185
S11313B04D9661E096D88E8D882F90E0382F2227A5
S11313C08F8D882F90E0822B932B9EA38DA388A1D1
S11313D0882F90E0382F222789A1882F90E0822B34
S11313E0932B98A78FA38AA1882F90E0382F2227C8
S11313F08BA1882F90E0822B932B9AA789A72DA1EC
S11314003EA18BA59CA5A901481B590BCA01AA277B
S113141097FDA095BA2FBC01CD010E947B15DC017C
S1131420CB01BF771BAABC01CD0120E030E040EA2C
S113143050E40E942B16181614F451E05BAB81E0C3
S11314409BA98927882309F4A4CE2FA138A58DA5AB
S11314509EA5A901481B590BCA01AA2797FDA0956F
S1131460BA2FBC01CD010E947B15DC01CB01BF77F3
S11314701AAABC01CD0120E030E040EA50E40E9409
S11314802B16181614F451E05AAB81E09AA9892757
S1131490882309F47ECE29A53AA58FA598A9A90188
S11314A0481B590BCA01AA2797FDA095BA2FBC0166
S11314B0CD010E947B15DC01CB01BF7719AABC01C9
S11314C0CD0120E030E040EA50E40E942B161816CB
S11314D014F451E059AB81E099A98927882309F4D0
S11314E058CE80E0E3960FB6F894DEBF0FBECDBFB2
S11314F0CF91DF9108950F931F93DF93CF93CDB7CF
S1131500DEB7CB55D0400FB6F894DEBF0FBECDBFCB
S1131510FE01EC5AFF4F91838083FE01EA5AFF4F8C
S11315206083FE01E95AFF4F51834083FE01E45B6F
S1131530FF4F86E58083DE01A45BBF4FFE01EA5ABC
S1131540FF4F808111968C93119785C0FE01ED5B4E
S1131550FF4F80E090E0A8E4B2E480839183A2830B
S1131560B3838E01015C1F4FFE01ED5BFF4F608171
S113157071818281938120E030E44CE155E40E9442
S11315802F16DC01CB01F80180839183A283B383FE
S1131590FE01FF96608171818281938120E030E0B9
S11315A040E85FE30E94E11488232CF481E090E09A
S11315B09EAF8DAF46C0FE01FF966081718182812E
S11315C0938120E03FEF4FE757E40E942B16181653
S11315D064F5FE01ED5BFF4F60817181828193812F
S11315E020E030E040E251E40E942F16DC01CB0100
S11315F0BC01CD010E944D15DC01CB019EAF8DAF26
S11316000FC08AEF90E09CAF8BAF8BAD9CAD019780
S1131610F1F79CAF8BAF8DAD9EAD01979EAF8DAFB3
S11316208DAD9EAD009769F716C0FE01FF966081EF
S11316307181828193810E944D15DC01CB019EAFA3
S11316408DAF8DAD9EAD9AAF89AF89AD9AAD01973F
S1131650F1F79AAF89AFCE01845B9F4F63EC0E9490
S1131660E502882309F072CFFE01E45BFF4F84E5B5
S11316708083FE01EC5AFF4F80819181892F990F5D
S1131680990BFE01E45BFF4F8183FE01EC5AFF4F8F
S11316908081FE01E45BFF4F828372C080E090E0B2
S11316A0A8E4B2E48DAB9EABAFABB8AF6DA97EA995
S11316B08FA998AD20E030E44CE155E40E942F1648
S11316C0DC01CB0189AB9AABABABBCAB69A97AA902
S11316D08BA99CA920E030E040E85FE30E94E1147C
S11316E088232CF481E090E098AB8FA73FC069A9D0
S11316F07AA98BA99CA920E03FEF4FE757E40E9409
S11317002B1618164CF56DA97EA98FA998AD20E06B
S113171030E040E251E40E942F16DC01CB01BC0111
S1131720CD010E944D15DC01CB0198AB8FA70FC0F2
S11317308AEF90E09EA78DA78DA59EA50197F1F74E
S11317409EA78DA78FA598A9019798AB8FA78FA562
S113175098A9009769F714C069A97AA98BA99CA9CB
S11317600E944D15DC01CB0198AB8FA78FA598A9DA
S11317709CA78BA78BA59CA50197F1F79CA78BA78A
S1131780CE01845B9F4F63EC0E94E502882309F03D
S113179085CF05D4FE01E95BFF4FAA2797FDA095ED
S11317A0BA2F80839183A283B383FE01E45BFF4F4E
S11317B080E5808372C080E090E0A8E4B2E48FA367
S11317C098A7A9A7BAA76FA178A589A59AA520E08B
S11317D030E44CE155E40E942F16DC01CB018BA3CD
S11317E09CA3ADA3BEA36BA17CA18DA19EA120E06F
S11317F030E040E85FE30E94E11488232CF481E0A8
S113180090E09AA389A33FC06BA17CA18DA19EA166
S113181020E03FEF4FE757E40E942B1618164CF5D3
S11318206FA178A589A59AA520E030E040E251E4B3
S11318300E942F16DC01CB01BC01CD010E944D1585
S1131840DC01CB019AA389A30FC08AEF90E098A38F
S11318508F8F8F8D98A10197F1F798A38F8F89A10E
S11318609AA101979AA389A389A19AA1009769F7DC
S113187014C06BA17CA18DA19EA10E944D15DC0119
S1131880CB019AA389A389A19AA19E8F8D8F8D8D57
S11318909E8D0197F1F79E8F8D8FCE01845B9F4FB4
S11318A063EC0E94E502882309F085CFCE01845BB6
S11318B09F4F61E00E94710280E090E0A8E4B2E4EE
S11318C0898F9A8FAB8FBC8F698D7A8D8B8D9C8D10
S11318D020E030E44CE155E40E942F16DC01CB01FA
S11318E08D8B9E8BAF8BB88F6D897E898F89988DF8
S11318F020E030E040E85FE30E94E11488232CF408
S113190081E090E09C8B8B8B3FC06D897E898F89B1
S1131910988D20E03FEF4FE757E40E942B161816EE
S11319204CF5698D7A8D8B8D9C8D20E030E040E202
S113193051E40E942F16DC01CB01BC01CD010E94B1
S11319404D15DC01CB019C8B8B8B0FC08AEF90E093
S11319509A8B898B89899A890197F1F79A8B898B5C
S11319608B899C8901979C8B8B8B8B899C89009795
S113197069F714C06D897E898F89988D0E944D15F1
S1131980DC01CB019C8B8B8B8B899C89988B8F87FB
S11319908F8598890197F1F7988B8F87FE01E45B17
S11319A0FF4F8081893421F46A961FAE6A97C2C0C2
S11319B0FE01E45BFF4F8081833529F4F2E06A96EF
S11319C0FFAF6A97B7C0FE01E45BFF4F80818534A7
S11319D029F421E06A962FAF6A97ACC080E090E0CA
S11319E0A8E4B2E48B879C87AD87BE876B857C8532
S11319F08D859E8520E030E44CE155E40E942F164D
S1131A00DC01CB018F839887A987BA876F8178859A
S1131A1089859A8520E030E040E85FE3D2D78823C7
S1131A202CF481E090E09E838D833EC06F817885A5
S1131A3089859A8520E03FEF4FE757E40E942B16F3
S1131A4018164CF56B857C858D859E8520E030E0ED
S1131A5040E251E40E942F16DC01CB01BC01CD0110
S1131A600E944D15DC01CB019E838D830FC08AEF4C
S1131A7090E09C838B838B819C810197F1F79C83FD
S1131A808B838D819E8101979E838D838D819E8121
S1131A90009769F713C06F81788589859A85FDD78A
S1131AA0DC01CB019E838D838D819E819A83898302
S1131AB089819A810197F1F79A838983FE01E95A12
S1131AC0FF4F80819181009709F46FCE9E01295ABE
S1131AD03F4FFE01E95BFF4F80819181A281B38179
S1131AE0F9010190F081E02D6C96FFAFEEAF6C9799
S1131AF0BC01CD016C962EAD3FAD6C97F9010995F3
S1131B00FE01E55BFF4F8083FE01E55BFF4F8081B3
S1131B10813029F431E06A963FAF6A970BC0FE0129
S1131B20E55BFF4F8081823009F03FCE43E06A9647
S1131B304FAF6A976A968FAD6A97C55ADF4F0FB653
S1131B40F894DEBF0FBECDBFCF91DF911F910F91EF
S1131B5008950F931F93DF93CF9300D000D00F927B
S1131B60CDB7DEB79B838A836C8380914C018A3026
S1131B7010F01D828EC080914C01082F10E086E089
S1131B8090E00E94AC169C01C801880F991FFC01CB
S1131B90E15BFE4F3183208380914C01882F90E0DC
S1131BA0880F991FFC01E15BFE4F808191810097B2
S1131BB019F48FEF8D836DC080914C01882F90E0D4
S1131BC0880F991FFC01E15BFE4F0190F081E02D2D
S1131BD08A819B819183808380914C01882F90E03E
S1131BE0880F991FFC01E15BFE4F0190F081E02D0D
S1131BF08C818283198216C080914C01882F90E0D9
S1131C00880F991FFC01E15BFE4F2081318189819E
S1131C10882F90E0820F931FFC01339610828981F4
S1131C208F5F89838981833038F38A819B81DC01CA
S1131C3011978A819B81FC0131978081482F8C8187
S1131C40282F30E081E090E002C0880F991F2A9588
S1131C50E2F7809584238C93EA81FB818081482F6D
S1131C608C81282F30E081E090E0022E02C0880FA2
S1131C70991F0A94E2F7842BEA81FB818083809187
S1131C804C01898380914C018F5F80934C01898141
S1131C908D838D810F900F900F900F900F90CF91A7
S1131CA0DF911F910F910895DF93CF930F92CDB7DA
S1131CB0DEB789838981882F90E0880F991FFC0102
S1131CC0E15BFE4F0190F081E02D23818981882F13
S1131CD090E0880F991FFC01E15BFE4F0190F081B9
S1131CE0E02D848128238981882F90E0880F991F13
S1131CF0FC01E15BFE4F0190F081E02D85818223A0
S1131D000F90CF91DF910895DF93CF9300D0CDB79B
S1131D10DEB78A8319828A81882F90E0880F991F01
S1131D20FC01E15BFE4F0190F081E02D8081918107
S1131D30FC0132978081282F30E08A81882F90E03F
S1131D40880F991FFC01E15BFE4F0190F081E02DAB
S1131D508281882F90E0A90102C0559547958A9504
S1131D60E2F7CA018170898389810F900F90CF9126
S1131D70DF910895EF92FF920F931F93DF93CF9318
S1131D800F92CDB7DEB780914E018F5F80934E01E5
S1131D9080914E01833010F010924E0119821AC0C6
S1131DA08981882F90E0880F991FFC01E15BFE4F29
S1131DB0E080F18080914E01082F10E08981A4DF3A
S1131DC0282FC701800F911FFC013396208389813E
S1131DD08F5F898390914C018981891708F30F9053
S1131DE0CF91DF911F910F91FF90EF9008950F9382
S1131DF01F93DF93CF9300D0CDB7DEB79A83898347
S1131E00E0E8F0E01082E1E8F0E089E0808308E8AF
S1131E1010E089819A81CC01A0E0B0E0BC01CD0141
S1131E2068D69B01AC0160E876E988E19BE4CDD5F6
S1131E30DC01CB01BC01CD0120E030E040E05FE3F8
S1131E405CD5DC01CB01BC01CD0127D6DC01CB0183
S1131E50F80191838083EFE6F0E082E08083AFE5D0
S1131E60B0E0EFE5F0E0808180688C930F900F90F4
S1131E70CF91DF911F910F9108951F920F920FB68A
S1131E800F9200905B000F9211242F933F934F9376
S1131E905F936F937F938F939F93AF93BF93EF93CE
S1131EA0FF93DF93CF93CDB7DEB764DF0E94860440
S1131EB08091630190916401A0916501B0916601E4
S1131EC00196A11DB11D8093630190936401A093B9
S1131ED06501B0936601CF91DF91FF91EF91BF91BE
S1131EE0AF919F918F917F916F915F914F913F91AE
S1131EF02F910F9000925B000F900FBE0F901F90D8
S1131F001895DF93CF93CDB7DEB788EE93E06FDFFC
S1131F1084E690E06DD0E3E3F0E08FEF808384E02B
S1131F2090E00E94250289EDBCD082E290E062E05C
S1131F3010DE8093730282E290E060E00ADE809318
S1131F40710282E290E063E004DE8093700282E238
S1131F5090E061E0FEDD8093740285E290E060E051
S1131F60F8DD80936F0281E390E060E0F2DD80931E
S1131F707202109275021092760222D0813091057D
S1131F80E1F381E080934D011092630110926401AA
S1131F901092650110926601CF91DF910895DF934D
S1131FA0CF93CDB7DEB78091630190916401A09186
S1131FB06501B0916601BC01CD01CF91DF91089517
S1131FC0DF93CF9300D0CDB7DEB7809172026CDE81
S1131FD0813019F41A82198204C081E090E09A8356
S1131FE0898389819A810F900F90CF91DF91089511
S1131FF00F931F93DF93CF9300D0CDB7DEB79A83AF
S11320008983ADE2B0E0EDE2F0E0808188638C93F7
S1132010E4E9F0E011821082E8E9F0E01182108234
S1132020EAE9F0E011821082ECE9F0E0118210821A
S1132030E0E9F0E08EEF8083E1E9F0E08AE180837B
S113204006E910E089819A81880F991F880F991FEA
S1132050880F991FCC01A0E0B0E0BC01CD0149D5A7
S11320609B01AC0160E876E988E19BE4AED4DC0135
S1132070CB01BC01CD0120E030E040E05FE33DD482
S1132080DC01CB01BC01CD0108D5DC01CB01F80199
S1132090918380830F900F90CF91DF911F910F91C7
S11320A00895CF92DF92EF92FF920F931F93DF93E5
S11320B0CF930F92CDB7DEB7898389818B3F18F414
S11320C08981853A10F488EC89830F2EF8E9CF2EA4
S11320D0DD24F02DE6E9F0E080819181CC01A0E0DF
S11320E0B0E0BC01CD0105D5DC01CB01BC01CD01C3
S11320F020E030E04FE753E468D4DC01CB017C01FD
S11321008D018981882F90E0AA2797FDA095BA2F89
S1132110BC01CD01F0D49B01AC01C801B7019FD52E
S1132120DC01CB01BC01CD0120E030E040E05FE305
S1132130E4D3DC01CB01BC01CD01AFD4DC01CB0184
S1132140F601918380830F90CF91DF911F910F91BE
S1132150FF90EF90DF90CF900895DF93CF93CDB7AA
S1132160DEB780914D01CF91DF9108951F920F92B8
S11321700FB60F9200905B000F9211248F939F93E0
S1132180AF93BF93EF93FF93DF93CF93CDB7DEB7B6
S1132190809167018823D9F08091670181508093F1
S11321A06701A6ECB0E080916801882F90E0FC0103
S11321B0E159FE4F80818C93809168018F5F8093F9
S11321C0680180916801803411F410926801CF9104
S11321D0DF91FF91EF91BF91AF919F918F910F90FC
S11321E000925B000F900FBE0F901F9018951F92E6
S11321F00F920FB60F9200905B000F9211242F9351
S11322008F939F93EF93FF93DF93CF930F92CDB769
S1132210DEB7E0ECF0E0808189838981882F90E04B
S11322208C7190700097D9F480916901882F90E0A7
S1132230E6ECF0E02081FC01E155FE4F2083809123
S113224069018F5F8093690180916901803411F481
S11322501092690180916A018F5F80936A010F90E7
S1132260CF91DF91FF91EF919F918F912F910F90DB
S113227000925B000F900FBE0F901F9018951F9255
S11322800F920FB60F9200905B000F9211248F9360
S11322909F93AF93BF93EF93FF93DF93CF93CDB708
S11322A0DEB780916B018823D9F080916B01815056
S11322B080936B01AEECB0E080916C01882F90E0CC
S11322C0FC01E151FE4F80818C9380916C018F5F02
S11322D080936C0180916C01803411F410926C0134
S11322E0CF91DF91FF91EF91BF91AF919F918F912A
S11322F00F9000925B000F900FBE0F901F901895E7
S11323001F920F920FB60F9200905B000F92112450
S11323102F938F939F93EF93FF93DF93CF930F921A
S1132320CDB7DEB7E8ECF0E0808189838981882F1E
S113233090E08C7190700097D9F480916D01882F92
S113234090E0EEECF0E02081FC01E15DFD4F2083A4
S113235080916D018F5F80936D0180916D01803458
S113236011F410926D0180916E018F5F80936E0164
S11323700F90CF91DF91FF91EF919F918F912F91CA
S11323800F9000925B000F900FBE0F901F90189556
S1132390DF93CF93CDB7DEB762970FB6F894DEBF65
S11323A00FBECDBF6F87788B898B9A8B8091730218
S11323B07BDC813029F08091710276DC813021F45C
S11323C083E70E943305FFCF80917602882309F0CA
S11323D071C080E090E4AEE4B5E48B879C87AD8760
S11323E0BE876B857C858D859E8520E030E44CE13D
S11323F055E435D4DC01CB018F839887A987BA874C
S11324006F81788589859A8520E030E040E85FE334
S1132410D8D288232CF481E090E09E838D833BC046
S11324206F81788589859A8520E03FEF4FE757E4EF
S113243012D418163CF56B857C858D859E8520E02D
S113244030E040E251E40BD4DC01CB01BC01CD010E
S113245024D3DC01CB019E838D830FC08AEF90E0EF
S11324609C838B838B819C810197F1F79C838B8365
S11324708D819E8101979E838D838D819E8100979E
S113248069F713C06F81788589859A8506D3DC0145
S1132490CB019E838D838D819E819A8389838981DB
S11324A09A810197F1F79A8389838DECFADD81E0B3
S11324B08093760280E062960FB6F894DEBF0FBE7A
S11324C0CDBFCF91DF910895DF93CF9300D000D09B
S11324D00F92CDB7DEB769837A838B839C83809117
S11324E07302E2DB813029F080917102DDDB8130FF
S11324F051F483E70E943305E4E3F0E08FEF808337
S113250081E08D8304C0E4E3F0E010821D828D81BC
S11325100F900F900F900F900F90CF91DF9108952F
S1132520DF93CF93CDB7DEB7E6970FB6F894DEBF4F
S11325300FBECDBF1EA61DA681E08BA718AA1FA69D
S11325401AAA19AA1CAA1BAA4FA558A969A97AA94B
S11325508BA99CA90E94B9088BA5282F30E03EAB1B
S11325602DAB8DA99EA983309105A9F02DA93EA973
S11325702530310539F08DA99EA98130910509F4E2
S11325808FC0EACF24E632E180EC90EE6CE3A9013F
S11325900E944C06FFCF8EA5813009F071C0FFCF99
S11325A0E4E3F0E08FEF808380E090E0A8ECB2E415
S11325B08FA398A7A9A7BAA76FA178A589A59AA55B
S11325C020E030E44CE155E44AD3DC01CB018BA399
S11325D09CA3ADA3BEA36BA17CA18DA19EA120E071
S11325E030E040E85FE3EDD188232CF481E090E013
S11325F09AA389A33BC06BA17CA18DA19EA120E0DD
S11326003FEF4FE757E427D318163CF56FA178A5A1
S113261089A59AA520E030E040E251E420D3DC0112
S1132620CB01BC01CD0139D2DC01CB019AA389A332
S11326300FC08AEF90E098A38F8F8F8D98A1019798
S1132640F1F798A38F8F89A19AA101979AA389A3DF
S113265089A19AA1009769F713C06BA17CA18DA1F0
S11326609EA11BD2DC01CB019AA389A389A19AA1C3
S11326709E8F8D8F8D8D9E8D0197F1F79E8F8D8FFF
S113268060E070E080E090E01FDF813009F488CFE3
S1132690E4E3F0E0108285E08BA78EA58DA75CCFE4
S11326A08DA58EA724C18EA5282F30E0C901880FDF
S11326B0991F880F991F820F931FFC01E05FFE4F43
S11326C0408151818EA5282F30E0C901880F991FC0
S11326D0880F991F820F931FFC01EE5EFE4F6081ED
S11326E08EA5282F30E0C901880F991F880F991FE4
S11326F0820F931FFC01ED5EFE4F20813181CA01E0
S1132700A9010E944C068CA78CA5813029F483E092
S11327108BA78EA58DA720CF8EA5882309F0E0C0B6
S113272080E090E0AAE7B4E4898F9A8FAB8FBC8FE6
S1132730698D7A8D8B8D9C8D20E030E44CE155E4DD
S11327408ED2DC01CB018D8B9E8BAF8BB88F6D89C4
S11327507E898F89988D20E030E040E85FE331D1B5
S113276088232CF481E090E09C8B8B8B3BC06D899B
S11327707E898F89988D20E03FEF4FE757E46BD235
S113278018163CF5698D7A8D8B8D9C8D20E030E098
S113279040E251E464D2DC01CB01BC01CD017DD126
S11327A0DC01CB019C8B8B8B0FC08AEF90E09A8B62
S11327B0898B89899A890197F1F79A8B898B8B89FF
S11327C09C8901979C8B8B8B8B899C89009769F7DB
S11327D013C06D897E898F89988D5FD1DC01CB010F
S11327E09C8B8B8B8B899C89988B8F878F85988901
S11327F00197F1F7988B8F878EE490E062E340E0D5
S113280050E00E947B0A80E090E0AAE7B4E48B8762
S11328109C87AD87BE876B857C858D859E8520E0F2
S113282030E44CE155E41BD2DC01CB018F83988763
S1132830A987BA876F81788589859A8520E030E0F9
S113284040E85FE3BED088232CF481E090E09E83CF
S11328508D833BC06F81788589859A8520E03FEF21
S11328604FE757E4F8D118163CF56B857C858D85C8
S11328709E8520E030E040E251E4F1D1DC01CB015F
S1132880BC01CD010AD1DC01CB019E838D830FC035
S11328908AEF90E09C838B838B819C810197F1F775
S11328A09C838B838D819E8101979E838D838D81F3
S11328B09E81009769F718C06F81788589859A850C
S11328C0ECD0DC01CB019E838D838D819E819A8324
S11328D0898389819A810197F1F79A83898304C056
S11328E08EA5813009F4FFCF8EA58F5F8EA78EA5AC
S11328F0823008F4D8CE30CE5058BB27AA270ED049
S113290070C161D130F066D120F031F49F3F11F4F1
S11329101EF456C10EF4E095E7FB4CC1E92F72D1C9
S113292080F3BA17620773078407950718F071F4E8
S11329309EF58AC10EF4E0950B2EBA2FA02D0B0143
S1132940B90190010C01CA01A0011124FF27591BF0
S113295099F0593F50F4503E68F11A16F040A22FF6
S1132960232F342F4427585FF3CF46953795279567
S1132970A795F0405395C9F77EF41F16BA0B620B66
S1132980730B840BBAF09150A1F0FF0FBB1F661FAD
S1132990771F881FC2F70EC0BA0F621F731F841FF0
S11329A048F4879577956795B795F7959E3F08F016
S11329B0B3CF9395880F08F09927EE0F97958795D5
S11329C00895D4D008F481E008950CD00AC102D14E
S11329D040F0F9D030F021F45F3F19F0EBC0511111
S11329E034C1EEC00FD198F39923C9F35523B1F341
S11329F0951B550BBB27AA2762177307840738F06A
S1132A009F5F5F4F220F331F441FAA1FA9F333D0C8
S1132A100E2E3AF0E0E830D091505040E695001C7C
S1132A20CAF729D0FE2F27D0660F771F881FBB1F38
S1132A30261737074807AB07B0E809F0BB0B802D12
S1132A40BF01FF2793585F4F2AF09E3F510568F05E
S1132A50B1C0FBC05F3FECF3983EDCF386957795FD
S1132A606795B795F7959F5FC9F7880F911D969560
S1132A70879597F90895E1E0660F771F881FBB1FBC
S1132A80621773078407BA0720F0621B730B840B69
S1132A90BA0BEE1F88F7E0950895BCD088F09F57D5
S1132AA090F0B92F9927B751A0F0D1F0660F771F96
S1132AB0881F991F1AF0BA95C9F712C0B13081F076
S1132AC0C3D0B1E00895C0C0672F782F8827B85FBE
S1132AD039F0B93FCCF3869577956795B395D9F7D7
S1132AE03EF490958095709561957F4F8F4F9F4FE1
S1132AF00895E89409C097FB3EF4909580957095ED
S1132B0061957F4F8F4F9F4F9923A9F0F92F96E935
S1132B10BB279395F695879577956795B795F111AA
S1132B20F8CFFAF4BB0F11F460FF1BC06F5F7F4F47
S1132B308F4F9F4F16C0882311F096E911C0772359
S1132B4021F09EE8872F762F05C0662371F096E862
S1132B50862F70E060E02AF09A95660F771F881F31
S1132B60DAF7880F9695879597F90895990F0008D5
S1132B70550FAA0BE0E8FEEF16161706E807F9074B
S1132B80C0F012161306E407F50798F0621B730BE6
S1132B90840B950B39F40A2661F0232B242B252B67
S1132BA021F408950A2609F4A140A6958FEF811D0A
S1132BB0811D089597F99F6780E870E060E00895AB
S1132BC09FEF80EC089500240A9416161706180641
S1132BD00906089500240A9412161306140605061D
S1132BE00895092E0394000C11F4882352F0BB0FAE
S1132BF040F4BF2B11F460FF04C06F5F7F4F8F4F11
S1132C009F4F089557FD9058440F551F59F05F3F4B
S1132C1071F04795880F97FB991F61F09F3F79F0FA
S1132C2087950895121613061406551FF2CF46957C
S1132C30F1DF08C0161617061806991FF1CF8695FE
S1132C407105610508940895E894BB2766277727E2
S1132C50CB0197F908958ADF08F48FEF08950BD01C
S1132C60C0CFB1DF28F0B6DF18F0952309F0A2CF6A
S1132C70A7CF1124EACFC6DFA0F3959FD1F3950F18
S1132C8050E0551F629FF001729FBB27F00DB11DEC
S1132C90639FAA27F00DB11DAA1F649F6627B00D7C
S1132CA0A11D661F829F2227B00DA11D621F739F65
S1132CB0B00DA11D621F839FA00D611D221F749F73
S1132CC03327A00D611D231F849F600D211D822FBA
S1132CD0762F6A2F11249F5750408AF0E1F0882301
S1132CE04AF0EE0FFF1FBB1F661F771F881F91500E
S1132CF05040A9F79E3F510570F05CCFA6CF5F3FCF
S1132D00ECF3983EDCF3869577956795B795F79540
S1132D10E7959F5FC1F7FE2B880F911D96958795C8
S1132D2097F908950F931F93CF93DF93689F8001C2
S1132D30699F100D789F100D1124C8010DD0EC016E
S1132D40009721F060E070E0A8010BD1CE01DF9183
S1132D50CF911F910F910895CF93DF93BC018230DF
S1132D60910510F462E070E0A0917902B0917A02CA
S1132D70ED01E0E0F0E040E050E021C0888199817D
S1132D808617970769F48A819B81309719F093839A
S1132D90828304C090937A0280937902FE0134C046
S1132DA06817790738F44115510519F08417950708
S1132DB008F4AC01FE018A819B819C01E901209702
S1132DC0E9F641155105A9F1CA01861B970B049731
S1132DD008F4BA01E0E0F0E02AC08D919C911197CB
S1132DE084179507F9F46417750781F412968D9189
S1132DF09C911397309719F09383828304C0909326
S1132E007A0280937902FD0132964FC0CA01861B73
S1132E10970BFD01E80FF91F6193719302978D934E
S1132E209C9343C0FD01828193819C01D901109739
S1132E30A1F68091770290917802892B41F48091D8
S1132E40020190910301909378028093770240915C
S1132E500401509105014115510541F44DB75EB788
S1132E608091000190910101481B590B2091770238
S1132E703091780224173507B0F4CA01821B930BF2
S1132E808617970780F0AB014E5F5F4F8417950755
S1132E9050F0420F531F5093780240937702F90188
S1132EA06193719302C0E0E0F0E0CF01DF91CF9134
S1132EB00895CF93DF93009709F450C0EC01229753
S1132EC01B821A82A0917902B0917A02109709F1BB
S1132ED040E050E0AC17BD0708F1BB83AA83FE01B4
S1132EE021913191E20FF31FAE17BF0779F48D9151
S1132EF09C911197280F391F2E5F3F4F39832883E8
S1132F0012968D919C9113979B838A834115510549
S1132F1071F4D0937A02C093790220C012968D91F5
S1132F209C911397AD01009711F0DC01D3CFFA0106
S1132F30D383C28321913191E20FF31FCE17DF07B0
S1132F4069F488819981280F391F2E5F3F4FFA0158
S1132F50318320838A819B8193838283DF91CF9104
S1132F600895DC0101C06D9341505040E0F708958D
S1072F70F894FFCFFF
S1132F7420007B02000012FD3C66030000000000F8
S10D2F841EFD3C64120DFD28C81167
S9030000FC
