S01700004D616C695F526F626F745F323031352E73726563FE
S113000049C0000066C0000064C0000062C0000077
S113001060C000005EC000005CC000005AC0000068
S113002058C0000056C0000054C0000052C0000078
S11300300C94F6144EC000004CC000004AC00000EE
S113004048C0000046C00000BAC6000042C000001C
S113005040C000000C9400173CC000000C94BF1674
S113006038C0000036C0000034C0000032C00000B8
S113007030C000002EC000002CC000002AC00000C8
S11300800C94891726C000000C94481722C0000065
S113009020C0000011241FBECFEFD0E1DEBFCDBFD2
S11300A012E0A0E0B1E0EAE8F7E300E00BBF02C031
S11300B007900D92A031B107D9F713E0A0E1B2E0A7
S11300C001C01D92A836B107E1F70E943F0C0C94C1
S11300D0C31B96CFAEE5B0E0E0E7F0E00C94661AFF
S11300E0A8E04E010894811C911CF4016A2E11921F
S11300F06A94E9F729833A834B835C836D837E8317
S11301008F839887CE010996FC011192AA95E9F78D
S1130110A986BA86CB86DC86ED86FE860F87188B89
S113012029843A844B845C84ED84FE840F85188989
S113013069807A808B809C806DA67EA68FA698AA03
S11301406D807E808F809884E114F104010511058F
S113015009F0B3C3621473048404950408F03DC128
S113016000E0201600E0300601E0400600E0500602
S113017088F41FEF211631044104510439F030F0A2
S113018048E0E42EF12C012D112D18C0EE24FF249B
S1130190870114C020E0221620E0320620E0420647
S11301A021E0520630F038E1E32EF12C012D112D1F
S11301B005C020E1E22EF12C012D112DD201C10147
S11301C00E2C04C0B695A795979587950A94D2F7F7
S11301D080509F4FDC012C9180E290E0A0E0B0E0E1
S11301E08E199F09A00BB10B7C018D01E21AF10855
S11301F001091109E114F10401051105A1F10E2C05
S113020004C0220C331C441C551C0A94D2F7A401CC
S113021093010E2C04C0220F331F441F551F0A9450
S1130220D2F780E290E08E199F096DA47EA48FA47A
S113023098A804C096948794779467948A95D2F783
S1130240622A732A842A952AADA4BEA4CFA4D8A86E
S113025004C0AA0CBB1CCC1CDD1CEA94D2F7ADA6CE
S1130260BEA6CFA6D8AA6201EE24FF24CDAADEAA98
S1130270EFAAF8AE920181012070307009AF1AAF75
S11302802BAF3CAFC401B301A70196010E94441AED
S11302907B018C01C401B3012DA93EA94FA958AD1E
S11302A00E94441AC901DA013C014D01C401B301A1
S11302B029AD3AAD4BAD5CAD0E94251A9B01AC0152
S11302C08701FF24EE24ADA4BEA4CFA4D8A8C60100
S11302D0AA27BB2757016801A82AB92ACA2ADB2AF8
S11302E0A216B306C406D506E0F4089461087108A2
S11302F081089108A20CB31CC41CD51CA214B3041D
S1130300C404D50470F0A216B306C406D50648F496
S113031008946108710881089108A20CB31CC41CDC
S1130320D51CA21AB30AC40AD50AC601B5012DA95F
S11303303EA94FA958AD0E94441A7B018C01C60105
S1130340B5012DA93EA94FA958AD0E94441AC9016F
S1130350DA015C016D01C601B50129AD3AAD4BADC1
S11303605CAD0E94251A9B01AC018701FF24EE2499
S11303708DA59EA5AFA5B8A9A070B070E82AF92AEA
S11303800A2B1B2BE216F30604071507C0F4089486
S1130390A108B108C108D108E20CF31C041D151D05
S11303A0E214F3040405150550F0E216F3060407FD
S11303B0150728F40894A108B108C108D108D3018D
S11303C09927882786017501E82AF92A0A2B1B2B0D
S11303D0E9AAFAAA0BAB1CABCFC421143104410423
S11303E0510471F461E070E080E090E020E030E0DE
S11303F040E050E00E94441AC901DA011C012D01B9
S113040000E0201600E0300601E0400600E050065F
S113041088F41FEF211631044104510431F028F00F
S113042048E050E060E070E017C040E050E060E079
S113043070E012C020E0221620E0320620E04206DE
S113044021E0520628F048E150E060E070E004C08A
S113045040E150E060E070E0D201C101042E04C02C
S1130460B695A795979587950A94D2F780509F4F94
S1130470DC012C91E0E2EE2EF12C012D112DD8019E
S1130480C701841B950BA60BB70B821B9109A1090D
S1130490B1090097A105B10561F464015301A218E3
S11304A0B308C408D50831E0632E712C812C912C3B
S11304B01EC16F968FAF6F97082E04C0220C331C99
S11304C0441C551C0A94D2F7EE2DE81B6401530119
S11304D00E2E04C0D694C794B794A7940A94D2F766
S11304E0A40193016F960FAC6F9704C0220F331FC2
S11304F0441F551F0A94D2F76DA47EA48FA498A814
S11305000E2E04C096948794779467940A94D2F735
S113051084017301E22AF32A042B152BE9A6FAA617
S11305200BA71CA732018824992492018101207011
S1130530307021960CAF1DAF2EAF3FAF2197C6018F
S1130540B501A40193010E94441A7B018C01C601E8
S1130550B501A40193010E94441AC901DA01259648
S11305608CAF9DAFAEAFBFAF2597BC01CD01219637
S11305702CAD3DAD4EAD5FAD21970E94251A9B0178
S1130580AC018701FF24EE24A9A4BAA4CBA4DCA463
S1130590C601AA27BB275C016D01AE28BF28C02A6B
S11305A0D12AA216B306C406D50660F525966CAD0D
S11305B07DAD8EAD9FAD25976150704080409040D9
S11305C025966CAF7DAF8EAF9FAF2597A20CB31C61
S11305D0C41CD51CA214B304C404D50498F0A216F8
S11305E0B306C406D50670F4615070408040904054
S11305F025966CAF7DAF8EAF9FAF2597A20CB31C31
S1130600C41CD51CA21AB30AC40AD50AC601B50172
S1130610A40193010E94441A7B018C01C601B50117
S1130620A40193010E94441AC901DA013C014D015D
S1130630C401B30121962CAD3DAD4EAD5FAD219704
S11306400E94251A9B01AC018701FF24EE2489A591
S11306509AA5ABA5BCA5A070B07057016801A82AE3
S1130660B92ACA2ADB2AA216B306C406D506E0F4C0
S113067008946108710881089108A20CB31CC41C79
S1130680D51CA214B304C404D50470F0A216B30696
S1130690C406D50648F408946108710881089108D5
S11306A0A20CB31CC41CD51C8DA59EA5AFA5B8A9CE
S11306B06F960FAC6F9704C0880F991FAA1FBB1FBA
S11306C00A94D2F78DA79EA7AFA7B8ABA21AB30A14
S11306D0C40AD50A2596ECACFDAC0EAD1FAD25972A
S11306E0D70199278827682A792A8A2A9B2A82018E
S11306F02227332729960CAF1DAF2EAF3FAF299782
S1130700A2019101407050702D962CAF3DAF4EAFB9
S11307105FAF2D97C601B50129962CAD3DAD4EAD09
S11307205FAD29970E94441A7B018C01C601B50173
S113073029962CAD3DAD4EAD5FAD29970E94441A6C
S1130740C901DA0161968CAF9DAFAEAFBFAF6197BF
S1130750BC01CD012D962CAD3DAD4EAD5FAD2D97B9
S11307600E94251A9B01AC018701FF24EE24ADA44D
S1130770BEA4CFA4D8A8C601AA27BB2757016801E5
S1130780A82AB92ACA2ADB2AA216B306C406D506A1
S113079060F561966CAD7DAD8EAD9FAD6197615096
S11307A070408040904061966CAF7DAF8EAF9FAF3C
S11307B06197A20CB31CC41CD51CA214B304C404BA
S11307C0D50498F0A216B306C406D50670F4615099
S11307D070408040904061966CAF7DAF8EAF9FAF0C
S11307E06197A20CB31CC41CD51CA21AB30AC40A78
S11307F0D50AC601B50129962CAD3DAD4EAD5FAD10
S113080029970E94441A7B018C01C601B5012996DF
S11308102CAD3DAD4EAD5FAD29970E94441AC90180
S1130820DA015C016D01C601B5012D962CAD3DAD1B
S11308304EAD5FAD2D970E94251A9B01AC01870137
S1130840FF24EE248DA59EA5AFA5B8A9A070B07015
S1130850E82AF92A0A2B1B2BE216F30604071507CC
S1130860C0F40894A108B108C108D108E20CF31C33
S1130870041D151DE214F3040405150550F0E216D9
S1130880F3060407150728F40894A108B108C10861
S1130890D1086196ECACFDAC0EAD1FAD6197D701EC
S11308A09927882796018501082B192B2A2B3B2B86
S11308B009AB1AAB2BAB3CAB62C26E147F0480064F
S11308C0910608F451C220E0E21620E0F20621E08D
S11308D0020720E0120788F43FEFE316F104010554
S11308E0110531F028F048E050E060E070E017C0F6
S11308F040E050E060E070E012C040E0E41640E008
S1130900F40640E0040741E0140728F048E150E011
S113091060E070E004C040E150E060E070E0D801C5
S1130920C701042E04C0B695A795979587950A9498
S1130930D2F780509F4FDC012C9130E2A32EB12CD2
S1130940C12CD12CD601C501841B950BA60BB70B6A
S1130950821B9109A109B1090097A105B10589F488
S1130960E614F7040805190508F4F2C16DA47EA481
S11309708FA498A8621473048404950408F0E8C151
S1130980F3C16E968FAF6E97082E04C0EE0CFF1C59
S1130990001F111F0A94D2F76A2D681BD201C101EE
S11309A0062E04C0B695A795979587950A94D2F715
S11309B05C016D01AE28BF28C02AD12AADA2BEA217
S11309C0CFA2D8A6720161016E960FAC6E9704C0D7
S11309D0CC0CDD1CEE1CFF1C0A94D2F7C9A2DAA2CF
S11309E0EBA2FCA264015301062E04C0D694C79462
S11309F0B794A7940A94D2F7D401C3016E960FACAE
S1130A006E9704C0880F991FAA1FBB1F0A94D2F7C0
S1130A10EDA4FEA40FA518A904C016950795F79494
S1130A20E7946A95D2F737014801682A792A8A2A15
S1130A309B2A6D8E7E8E8F8E98A2EDA0FEA00FA1B4
S1130A4018A53801882499249801870120703070F2
S1130A5065960CAF1DAF2EAF3FAF6597C601B501CC
S1130A60A40193010E94441A7B018C01C601B501C3
S1130A70A40193010E94441AC901DA011C012D0149
S1130A80C201B10165962CAD3DAD4EAD5FAD65972C
S1130A900E94251A9B01AC018701FF24EE24AD8C32
S1130AA0BE8CCF8CD8A0C601AA27BB2757016801EA
S1130AB0A82AB92ACA2ADB2AA216B306C406D5066E
S1130AC000F508942108310841085108EDA0FEA062
S1130AD00FA118A5AE0CBF1CC01ED11EAE14BF04BE
S1130AE0C006D10670F0A216B306C406D50648F4B3
S1130AF008942108310841085108AE0CBF1CC01EDF
S1130B00D11EA21AB30AC40AD50AC601B501A401AA
S1130B1093010E94441A7B018C01C601B501A40112
S1130B2093010E94441AC901DA013C014D01C40138
S1130B30B30165962CAD3DAD4EAD5FAD65970E949A
S1130B40251A9B01AC018701FF24EE248D8D9E8D17
S1130B50AF8DB8A1A070B07057016801A82AB92A56
S1130B60CA2ADB2AA216B306C406D50600F50894E1
S1130B7061087108810891086DA17EA18FA198A5D3
S1130B80A60EB71EC81ED91EA616B706C806D906D5
S1130B9070F0A216B306C406D50648F4089461089A
S1130BA0710881089108A60EB71EC81ED91ED60169
S1130BB0C501821B930BA40BB50B898F9A8FAB8F46
S1130BC0BC8FD1019927882764015301A82AB92A27
S1130BD0CA2ADB2AA9AABAAACBAADCAA8601750169
S1130BE02FEF3FEF40E050E0E222F32204231523ED
S1130BF0A601662777276D964CAF5DAF6EAF7FAFCA
S1130C006D97A9A0BAA0CBA0DCA06FEF7FEF80E026
S1130C1090E0A622B722C822D92289A19AA1ABA129
S1130C20BCA11D0144245524C801B701A6019501A6
S1130C300E94251A69966CAF7DAF8EAF9FAF6997FE
S1130C40C801B701A20191010E94251A3B014C0180
S1130C506D966CAD7DAD8EAD9FAD6D97A601950182
S1130C600E94251A7B018C016D966CAD7DAD8EAD15
S1130C709FAD6D97A20191010E94251A5B016C0141
S1130C80A8019701260D371D481D591D69966CACA6
S1130C907DAC8EAC9FAC6997C401AA27BB27280FF3
S1130CA0391F4A1F5B1F2E153F054007510748F4A3
S1130CB0E12CF12C61E0062F112DAE0CBF1CC01EDF
S1130CC0D11ECA01AA27BB27BC01CD016A0D7B1D19
S1130CD08C1D9D1D698C7A8C8B8C9C8C661677067A
S1130CE08806990640F1661577058805990509F087
S1130CF043C0D9019927882769962CAD3DAD4EADE7
S1130D005FAD699740705070820F931FA41FB51F89
S1130D102DA53EA54FA558A96E960FAC6E9704C09D
S1130D20220F331F441F551F0A94D2F7281739077F
S1130D304A075B0708F509A91AA92BA93CA9015080
S1130D4010402040304009AB1AAB2BAB3CAB14C075
S1130D5066247724430121E030E040E050E029ABF1
S1130D603AAB4BAB5CAB0BC066247724430119AAA6
S1130D701AAA1BAA1CAA03C0662477244301FE01F5
S1130D80719688E0DF011D928A95E9F7A9A8BAA8AF
S1130D90CBA8DCA8A98ABA8ACB8ADC8A6D8A7E8A27
S1130DA08F8A988E29A93A894B895C89662D7E8918
S1130DB08F89988DC25ADF4FE2E10C94821A1F92F8
S1130DC00F920FB60F9200905B000F9211242F9395
S1130DD03F934F935F938F939F93AF93BF93EF93FF
S1130DE0FF93DF93CF9300D000D0CDB7DEB7EDEE05
S1130DF0F0E080818C831B829CC0EDEEF0E08B815F
S1130E008295807F8083EEEEF0E0808182958695E6
S1130E108770882F90E081709070882309F46EC0E9
S1130E20EFEEF0E080E88083AEEEB0E0EEEEF0E0CE
S1130E3080818F7D8C93E2EFF0E0808182958695AE
S1130E408770282FE3EFF0E08081882F90E0880FEF
S1130E50991F880F991F880F991F822B8A831982E3
S1130E602AC08A81282F30E081E090E0821B930B16
S1130E70880F991F909581959F4FFC01E05FFD4F6E
S1130E80408151818A81882F90E00197FC01EC5DBB
S1130E90FD4F8081282F30E08981882F90E0820FD8
S1130EA0931FDA01A80FB91FEAEFF0E080818C9359
S1130EB089818F5F89838981883098F28A81882F1C
S1130EC090E00197FC01EC5DFD4F80818F5F808392
S1130ED08081853041F48A81882F90E00197FC015C
S1130EE0EC5DFD4F10828A81882F90E00197FC0110
S1130EF0E85CFD4F80818F5F80831FC0EEEEF0E0E1
S1130F0080818295869586958370882F90E0817084
S1130F109070882359F0EFEEF0E01082AEEEB0E06E
S1130F20EEEEF0E080818F7B8C9307C08B818F5F26
S1130F308B838B818F3008F460CFEDEEF0E08C81F1
S1130F408083AAEDB0E0EAEDF0E080818C930F900D
S1130F500F900F900F90CF91DF91FF91EF91BF9180
S1130F60AF919F918F915F914F913F912F910F90EE
S1130F7000925B000F900FBE0F901F901895DF93A7
S1130F80CF9300D0CDB7DEB7E8EDF0E081E0808309
S1130F901A8232C0EDEEF0E08A818295807F8083F0
S1130FA0EEEEF0E01082EFEEF0E01082E3EFF0E01E
S1130FB01082E2EFF0E01082E1EFF0E01082E0EF67
S1130FC0F0E01082E7EFF0E01082E6EFF0E010824C
S1130FD0E5EFF0E01082E4EFF0E01082198206C041
S1130FE0EAEFF0E0108289818F5F898389818830FC
S1130FF0B8F38A818F5F8A838A818F3058F2E8ED53
S1131000F0E082E08083E2EEF0E081E08083E3EED2
S1131010F0E088E08083E4EEF0E08EE58083E5EEA6
S1131020F0E01082EBEDF0E080EB8083EFEDF0E098
S11310308FE78083EEEDF0E08FEF808378940F905C
S11310400F90CF91DF910895DF93CF9300D000D01C
S11310500F92CDB7DEB79C838B83EDEEF0E08081F9
S11310608983E9EDF0E0808182958F70882F90E08C
S1131070817090708823A9F7E9EDF0E0808186956E
S113108086958695882F90E081709070882349F723
S11310901A823FC0EDEEF0E08A818295807F8083E2
S11310A0EFEEF0E0808182958695869583708823A3
S11310B069F5EFEEF0E08FE08083E3EFF0E08B8101
S11310C09C8190709695879596958795969587952A
S11310D08083E2EFF0E08B818295880F807E8083AD
S11310E0E6EFF0E080EE8083E7EFF0E08FEF8083BF
S11310F0AFEEB0E0EFEEF0E0808180688C93EDEE2F
S1131100F0E08981808381E08D830CC08A818F5FC8
S11311108A838A818F3008F4BDCFEDEEF0E08981B7
S113112080831D828D810F900F900F900F900F90F0
S1131130CF91DF9108950F931F93DF93CF9300D046
S1131140CDB7DEB78A831BDF198236C08981882F29
S113115090E0019679DF8981882F90E0880F991FAC
S11311608C01005F1D4F85E090E061E070E00E941B
S11311709D1AF801918380838981482F50E08981E9
S1131180282F30E08981882F90E0FC01E85CFD4F36
S11311901082FC01E85CFD4F8081F901E25DFD4FA6
S11311A08083F901E25DFD4F8081FA01EC5DFD4F22
S11311B0808389818F5F898399818A81981730F22E
S11311C00F900F90CF91DF911F910F910895DF93AE
S11311D0CF9300D000D0CDB7DEB79B838A836C83D6
S11311E08C81882F90E00197FC01E85CFD4F8081A1
S11311F08823B1F3198230C08981282F30E08A8195
S11312009B81DC01A20FB31F8C81282F30E081E089
S113121090E0821B930B880F991F909581959F4FA7
S1131220FC01E05FFD4F408151818C81882F90E06B
S11312300197FC01E25DFD4F8081282F30E0898118
S1131240882F90E0820F931FFA01E80FF91F808125
S11312508C9389818F5F89838981883068F28C813E
S1131260882F90E00197FC01E25DFD4F80818F5F44
S113127080838081853041F48C81882F90E00197B0
S1131280FC01E25DFD4F10828C81882F90E09C016F
S113129021503040F901E85CFD4F80818150F90113
S11312A0E85CFD4F808380E00F900F900F900F90CB
S11312B0CF91DF910895DF93CF93CDB7DEB7279712
S11312C00FB6F894DEBF0FBECDBF9D838C836E83B3
S11312D0E9EDF0E0808182958F70882F90E0817035
S11312E090708823A9F7E9EDF0E0808186958695D2
S11312F08695882F90E081709070882349F7EDEEF1
S1131300F0E0808189831A8212C0EDEEF0E08A81D8
S11313108295807F8083EFEEF0E0808182958695D0
S113132086958370882331F08A818F5F8A838A81CE
S11313308F3058F38A818F3019F48FEF8F8332C046
S1131340E2EFF0E08E818295880F807E8083E3EF68
S1131350F0E08E818695869586958083EFEEF0E0A9
S113136088E080831B820FC0AAEFB0E08B81282F16
S113137030E08C819D81FC01E20FF31F80818C930E
S11313808B818F5F8B838B81883070F3AFEEB0E0FD
S1131390EFEEF0E0808180648C93EDEEF0E08981E3
S11313A080831F828F8127960FB6F894DEBF0FBE0D
S11313B0CDBFCF91DF910895DF93CF93CDB7DEB743
S11313C02E970FB6F894DEBF0FBECDBF80E090EA33
S11313D0ACE8B5E48B879C87AD87BE876B857C853D
S11313E08D859E8520E030E44CE155E40E94C219CD
S11313F0DC01CB018F839887A987BA876F817885B1
S113140089859A8520E030E040E85FE30E94361841
S113141088232CF481E090E09E838D833FC06F810C
S1131420788589859A8520E03FEF4FE757E40E944D
S1131430BE1918164CF56B857C858D859E8520E03C
S113144030E040E251E40E94C219DC01CB01BC014E
S1131450CD010E94A218DC01CB019E838D830FC0B5
S11314608AEF90E09C838B838B819C810197F1F7B9
S11314709C838B838D819E8101979E838D838D8137
S11314809E81009769F714C06F81788589859A8554
S11314900E94A218DC01CB019E838D838D819E81E5
S11314A09A83898389819A810197F1F79A83898341
S11314B08EEB0E94631680E02E960FB6F894DEBF82
S11314C00FBECDBFCF91DF910895DF93CF93CDB7FA
S11314D0DEB7809162030E940614813021F080916E
S11314E061030E94061480E0CF91DF910895DF9399
S11314F0CF93CDB7DEB7E4970FB6F894DEBF0FBE37
S1131500CDBF1EA61DA681E08BA718AA1FA61AAAE6
S113151019AA1CAA1BAA4FA558A969A97AA98BA91B
S11315209CA90FD48BA5882F90E081309105D1F729
S11315308DA58EA79FC18EA5282F30E0C901880FE5
S1131540991F880F991F820F931FFC01EA5FFD4FBB
S1131550408151818EA5282F30E0C901880F991F41
S1131560880F991F820F931FFC01E85FFD4F608174
S11315708EA5282F30E0C901880F991F880F991F65
S1131580820F931FFC01E75FFD4F20813181CA0167
S1131590A9017DD18CA78EA5882309F0EBC080E03A
S11315A090E0AAE7B4E48FA398A7A9A7BAA76FA16C
S11315B078A589A59AA520E030E44CE155E40E9481
S11315C0C219DC01CB018BA39CA3ADA3BEA36BA169
S11315D07CA18DA19EA120E030E040E85FE30E9461
S11315E0361888232CF481E090E09AA389A33FC0A5
S11315F06BA17CA18DA19EA120E03FEF4FE757E4B2
S11316000E94BE1918164CF56FA178A589A59AA554
S113161020E030E040E251E40E94C219DC01CB0139
S1131620BC01CD010E94A218DC01CB019AA389A3BD
S11316300FC08AEF90E098A38F8F8F8D98A10197A8
S1131640F1F798A38F8F89A19AA101979AA389A3EF
S113165089A19AA1009769F714C06BA17CA18DA1FF
S11316609EA10E94A218DC01CB019AA389A389A19F
S11316709AA19E8F8D8F8D8D9E8D0197F1F79E8FF0
S11316808D8F81EB9FEF62E340E050E01CD580E05A
S113169090E0AAE7B4E4898F9A8FAB8FBC8F698DF1
S11316A07A8D8B8D9C8D20E030E44CE155E40E94D2
S11316B0C219DC01CB018D8B9E8BAF8BB88F6D89EA
S11316C07E898F89988D20E030E040E85FE30E94B6
S11316D0361888232CF481E090E09C8B8B8B3FC0E0
S11316E06D897E898F89988D20E03FEF4FE757E41D
S11316F00E94BE1918164CF5698D7A8D8B8D9C8DC0
S113170020E030E040E251E40E94C219DC01CB0148
S1131710BC01CD010E94A218DC01CB019C8B8B8BF8
S11317200FC08AEF90E09A8B898B89899A890197F7
S1131730F1F79A8B898B8B899C8901979C8B8B8B76
S11317408B899C89009769F792C06D897E898F89FE
S1131750988D0E94A218DC01CB019C8B8B8B8B890A
S11317609C89988B8F878F8598890197F1F7988B3F
S11317708F877DC08EA5813009F079C080E090E02C
S1131780AAE7B4E48B879C87AD87BE876B857C858D
S11317908D859E8520E030E44CE155E40E94C21919
S11317A0DC01CB018F839887A987BA876F817885FD
S11317B089859A8520E030E040E85FE30E9436188E
S11317C088232CF481E090E09E838D833FC06F8159
S11317D0788589859A8520E03FEF4FE757E40E949A
S11317E0BE1918164CF56B857C858D859E8520E089
S11317F030E040E251E40E94C219DC01CB01BC019B
S1131800CD010E94A218DC01CB019E838D830FC001
S11318108AEF90E09C838B838B819C810197F1F705
S11318209C838B838D819E8101979E838D838D8183
S11318309E81009769F714C06F81788589859A85A0
S11318400E94A218DC01CB019E838D838D819E8131
S11318509A83898389819A810197F1F79A8389838D
S113186086EA9FEF68E240E050E02DD4FFCF8EA5DA
S11318708F5F8EA78EA5823008F45DCE53CEDF93A2
S1131880CF93CDB7DEB70E94251531DEFECFDF93AF
S1131890CF93CDB7DEB7C754D0400FB6F894DEBFB0
S11318A00FBECDBFFE01EE5BFF4F91838083FE012F
S11318B0EC5BFF4F6083FE01EB5BFF4F5183408382
S11318C086E58AAFFE01EC5BFF4F80818BAF72C06F
S11318D080E090E0A8E4B2E48DAB9EABAFABB8AFD0
S11318E06DA97EA98FA998AD20E030E44CE155E4C0
S11318F00E94C219DC01CB0189AB9AABABABBCAB88
S113190069A97AA98BA99CA920E030E040E85FE3AB
S11319100E94361888232CF481E090E098AB8FA7BE
S11319203FC069A97AA98BA99CA920E03FEF4FE7A2
S113193057E40E94BE1918164CF56DA97EA98FA90B
S113194098AD20E030E040E251E40E94C219DC018D
S1131950CB01BC01CD010E94A218DC01CB0198ABE4
S11319608FA70FC08AEF90E09EA78DA78DA59EA597
S11319700197F1F79EA78DA78FA598A9019798AB1A
S11319808FA78FA598A9009769F714C069A97AA9A8
S11319908BA99CA90E94A218DC01CB0198AB8FA74C
S11319A08FA598A99CA78BA78BA59CA50197F1F758
S11319B09CA78BA7CE01CA9663EC7DDC882309F033
S11319C087CF84E48AAFFE01EE5BFF4F8081918173
S11319D0892F990F990B8BAFFE01EE5BFF4F80812E
S11319E08CAF72C080E090E0A8E4B2E48FA398A723
S11319F0A9A7BAA76FA178A589A59AA520E030E484
S1131A004CE155E40E94C219DC01CB018BA39CA3D9
S1131A10ADA3BEA36BA17CA18DA19EA120E030E06B
S1131A2040E85FE30E94361888232CF481E090E0BC
S1131A309AA389A33FC06BA17CA18DA19EA120E0A4
S1131A403FEF4FE757E40E94BE1918164CF56FA1FB
S1131A5078A589A59AA520E030E040E251E40E94EF
S1131A60C219DC01CB01BC01CD010E94A218DC012A
S1131A70CB019AA389A30FC08AEF90E098A38F8F1C
S1131A808F8D98A10197F1F798A38F8F89A19AA1BF
S1131A9001979AA389A389A19AA1009769F714C011
S1131AA06BA17CA18DA19EA10E94A218DC01CB0197
S1131AB09AA389A389A19AA19E8F8D8F8D8D9E8DC6
S1131AC00197F1F79E8F8D8FCE01CA9663ECF3DBFD
S1131AD0882309F087CF80E58AAF72C080E090E068
S1131AE0A8E4B2E4898F9A8FAB8FBC8F698D7A8D0D
S1131AF08B8D9C8D20E030E44CE155E40E94C219AA
S1131B00DC01CB018D8B9E8BAF8BB88F6D897E8969
S1131B108F89988D20E030E040E85FE30E9436181A
S1131B2088232CF481E090E09C8B8B8B3FC06D89E3
S1131B307E898F89988D20E03FEF4FE757E40E941C
S1131B40BE1918164CF5698D7A8D8B8D9C8D20E00D
S1131B5030E040E251E40E94C219DC01CB01BC0137
S1131B60CD010E94A218DC01CB019C8B8B8B0FC092
S1131B708AEF90E09A8B898B89899A890197F1F78A
S1131B809A8B898B8B899C8901979C8B8B8B8B89F6
S1131B909C89009769F714C06D897E898F89988D17
S1131BA00E94A218DC01CB019C8B8B8B8B899C89B6
S1131BB0988B8F878F8598890197F1F7988B8F87FA
S1131BC0CE01CA9663EC77DB882309F087CFCE0178
S1131BD0CA9661E0FCDA8AAD893421F428961FAEF6
S1131BE02897A2C08AAD833529F482E028968FAF66
S1131BF028979AC08AAD853429F481E028968FAF5E
S1131C00289792C080E090E0A8E4B2E48B879C8798
S1131C10AD87BE876B857C858D859E8520E030E40D
S1131C204CE155E40E94C219DC01CB018F839887F3
S1131C30A987BA876F81788589859A8520E030E005
S1131C4040E85FE30E94361888232CF481E090E09A
S1131C509E838D833FC06F81788589859A8520E036
S1131C603FEF4FE757E40E94BE1918164CF56B85F9
S1131C707C858D859E8520E030E040E251E40E9421
S1131C80C219DC01CB01BC01CD010E94A218DC0108
S1131C90CB019E838D830FC08AEF90E09C838B835E
S1131CA08B819C810197F1F79C838B838D819E812D
S1131CB001979E838D838D819E81009769F714C05F
S1131CC06F81788589859A850E94A218DC01CB01F1
S1131CD09E838D838D819E819A83898389819A8154
S1131CE00197F1F79A838983FE01EB5BFF4F8081B3
S1131CF09181009709F4EFCEFE01EB5BFF4F019059
S1131D00F081E02D099589AF89AD813029F481E016
S1131D1028968FAF289708C089AD823009F0DBCEB2
S1131D2083E028968FAF289728968FAD2897C95BB4
S1131D30DF4F0FB6F894DEBF0FBECDBFCF91DF915A
S1131D400895DF93CF93CDB7DEB7E3970FB6F8943A
S1131D50DEBF0FBECDBF4BA75CA76DA77EA78FA725
S1131D6098AB89E48D8F8BA59CA5892F990F990B2E
S1131D708E8F8BA59CA58F8F8DA59EA5892F990FDE
S1131D80990B88A38DA59EA589A31AA28FA598A9AE
S1131D908BA372C080E090E0A8E4B2E4898F9A8FAC
S1131DA0AB8FBC8F698D7A8D8B8D9C8D20E030E458
S1131DB04CE155E40E94C219DC01CB018D8B9E8B52
S1131DC0AF8BB88F6D897E898F89988D20E030E044
S1131DD040E85FE30E94361888232CF481E090E009
S1131DE09C8B8B8B3FC06D897E898F89988D20E079
S1131DF03FEF4FE757E40E94BE1918164CF5698D62
S1131E007A8D8B8D9C8D20E030E040E251E40E947D
S1131E10C219DC01CB01BC01CD010E94A218DC0176
S1131E20CB019C8B8B8B0FC08AEF90E09A8B898BB4
S1131E3089899A890197F1F79A8B898B8B899C8977
S1131E4001979C8B8B8B8B899C89009769F714C0B5
S1131E506D897E898F89988D0E94A218DC01CB013F
S1131E609C8B8B8B8B899C89988B8F878F8598898A
S1131E700197F1F7988B8F87CE014D9663EC1BDAAF
S1131E80882309F087CF80E58D8F72C080E090E0D1
S1131E90A8E4B2E48B879C87AD87BE876B857C857D
S1131EA08D859E8520E030E44CE155E40E94C21902
S1131EB0DC01CB018F839887A987BA876F817885E6
S1131EC089859A8520E030E040E85FE30E94361877
S1131ED088232CF481E090E09E838D833FC06F8142
S1131EE0788589859A8520E03FEF4FE757E40E9483
S1131EF0BE1918164CF56B857C858D859E8520E072
S1131F0030E040E251E40E94C219DC01CB01BC0183
S1131F10CD010E94A218DC01CB019E838D830FC0EA
S1131F208AEF90E09C838B838B819C810197F1F7EE
S1131F309C838B838D819E8101979E838D838D816C
S1131F409E81009769F714C06F81788589859A8589
S1131F500E94A218DC01CB019E838D838D819E811A
S1131F609A83898389819A810197F1F79A83898376
S1131F70CE014D9663EC9FD9882309F087CFCE011B
S1131F804D9661E024D98E8D882F90E0382F22273A
S1131F908F8D882F90E0822B932B9EA38DA388A1F5
S1131FA0882F90E0382F222789A1882F90E0822B58
S1131FB0932B98A78FA38AA1882F90E0382F2227EC
S1131FC08BA1882F90E0822B932B9AA789A72DA110
S1131FD03EA18BA59CA5A901481B590BCA01AA27A0
S1131FE097FDA095BA2FBC01CD010E94D018DC0149
S1131FF0CB01BF771BAABC01CD0120E030E040EA51
S113200050E40E94BE19181614F451E05BAB81E051
S11320109BA98927882309F4A4CE2FA138A58DA5CF
S11320209EA5A901481B590BCA01AA2797FDA09593
S1132030BA2FBC01CD010E94D018DC01CB01BF77BF
S11320401AAABC01CD0120E030E040EA50E40E942D
S1132050BE19181614F451E05AAB81E09AA98927E5
S1132060882309F47ECE29A53AA58FA598A9A901AC
S1132070481B590BCA01AA2797FDA095BA2FBC018A
S1132080CD010E94D018DC01CB01BF7719AABC0195
S1132090CD0120E030E040EA50E40E94BE19181659
S11320A014F451E059AB81E099A98927882309F4F4
S11320B058CE80E0E3960FB6F894DEBF0FBECDBFD6
S11320C0CF91DF9108950F931F93DF93CF93CDB7F3
S11320D0DEB7C555D0400FB6F894DEBF0FBECDBFF6
S11320E0FE01E05BFF4F91838083FE01EE5AFF4FB8
S11320F06083FE01ED5AFF4F51834083FE01E85B8C
S1132100FF4F86E58083DE01A85BBF4FFE01EE5AD8
S1132110FF4F808111968C93119782C0FE01ED5B75
S1132120FF4F80E090E0A8E4B2E480839183A2832F
S1132130B3838E01015C1F4FFE01ED5BFF4F608195
S113214071818281938120E030E44CE155E40E9466
S1132150C219DC01CB01F80180839183A283B3838C
S1132160FE01FF96608171818281938120E030E0DD
S113217040E85FE37BD788232CF481E090E09EAFB6
S11321808DAF44C0FE01FF9660817181828193818D
S113219020E03FEF4FE757E40E94BE1918165CF5A4
S11321A0FE01ED5BFF4F608171818281938120E0AC
S11321B030E040E251E40E94C219DC01CB01BC01D1
S11321C0CD01C0D7DC01CB019EAF8DAF0FC08AEF2C
S11321D090E09CAF8BAF8BAD9CAD0197F1F79CAFBA
S11321E08BAF8DAD9EAD01979EAF8DAF8DAD9EAD86
S11321F0009769F715C0FE01FF96608171818281A5
S11322009381A0D7DC01CB019EAF8DAF8DAD9EAD88
S11322109AAF89AF89AD9AAD0197F1F79AAF89AFBB
S1132220CE01885B9F4F63EC46D8882309F076CFB4
S1132230FE01E85BFF4F84E58083FE01E05BFF4F16
S113224080819181892F990F990BFE01E85BFF4FE3
S11322508183FE01E05BFF4F8081FE01E85BFF4F5D
S113226082836FC080E090E0A8E4B2E48DAB9EABC3
S1132270AFABB8AF6DA97EA98FA998AD20E030E4CB
S11322804CE155E40E94C219DC01CB0189AB9AAB45
S1132290ABABBCAB69A97AA98BA99CA920E030E0BF
S11322A040E85FE3E3D688232CF481E090E098AB28
S11322B08FA73DC069A97AA98BA99CA920E03FEF0B
S11322C04FE757E40E94BE19181644F56DA97EA97C
S11322D08FA998AD20E030E040E251E40E94C21999
S11322E0DC01CB01BC01CD012DD7DC01CB0198ABC6
S11322F08FA70FC08AEF90E09EA78DA78DA59EA5FE
S11323000197F1F79EA78DA78FA598A9019798AB80
S11323108FA78FA598A9009769F713C069A97AA90F
S11323208BA99CA90FD7DC01CB0198AB8FA78FA5F4
S113233098A99CA78BA78BA59CA50197F1F79CA7AF
S11323408BA7CE01885B9F4F63EC0E945B098823B7
S113235009F088CFFE01E85BFF4F80E580836DC004
S113236080E090E0A8E4B2E48FA398A7A9A7BAA755
S11323706FA178A589A59AA520E030E44CE155E445
S11323800E94C219DC01CB018BA39CA3ADA3BEA305
S11323906BA17CA18DA19EA120E030E040E85FE329
S11323A065D688232CF481E090E09AA389A33BC0EE
S11323B06BA17CA18DA19EA120E03FEF4FE757E4E4
S11323C0DDD718163CF56FA178A589A59AA520E05C
S11323D030E040E251E4D6D7DC01CB01BC01CD01B1
S11323E0B1D6DC01CB019AA389A30FC08AEF90E098
S11323F098A38F8F8F8D98A10197F1F798A38F8F52
S113240089A19AA101979AA389A389A19AA1009766
S113241069F713C06BA17CA18DA19EA193D6DC01A9
S1132420CB019AA389A389A19AA19E8F8D8F8D8DAB
S11324309E8D0197F1F79E8F8D8FCE01885B9F4F04
S113244063EC0E945B09882309F08ACFCE01885B84
S11324509F4F61E00E94E70880E090E0A8E4B2E4C6
S1132460898F9A8FAB8FBC8F698D7A8D8B8D9C8D64
S113247020E030E44CE155E485D7DC01CB018D8BC1
S11324809E8BAF8BB88F6D897E898F89988D20E064
S113249030E040E85FE3EAD588232CF481E090E063
S11324A09C8B8B8B3BC06D897E898F89988D20E0B6
S11324B03FEF4FE757E462D718163CF5698D7A8DE4
S11324C08B8D9C8D20E030E040E251E45BD7DC0151
S11324D0CB01BC01CD0136D6DC01CB019C8B8B8BAF
S11324E00FC08AEF90E09A8B898B89899A8901972A
S11324F0F1F79A8B898B8B899C8901979C8B8B8BA9
S11325008B899C89009769F713C06D897E898F89AF
S1132510988D18D6DC01CB019C8B8B8B8B899C8985
S1132520988B8F878F8598890197F1F7988B8F8780
S1132530FE01E85BFF4F8081893421F466961FAE6B
S11325406697ABC0FE01E85BFF4F8081833529F4B9
S1132550F2E06696FFAF6697A0C0FE01E85BFF4F0E
S11325608081853429F481E066968FAF669795C0A3
S113257080E090E0A8E4B2E48B879C87AD87BE87B7
S11325806B857C858D859E8520E030E44CE155E4A7
S1132590F9D6DC01CB018F839887A987BA876F812D
S11325A0788589859A8520E030E040E85FE35ED550
S11325B088232CF481E090E09E838D833BC06F815F
S11325C0788589859A8520E03FEF4FE757E4D6D692
S11325D018163CF56B857C858D859E8520E030E062
S11325E040E251E4CFD6DC01CB01BC01CD01AAD538
S11325F0DC01CB019E838D830FC08AEF90E09C8326
S11326008B838B819C810197F1F79C838B838D81D4
S11326109E8101979E838D838D819E81009769F7AA
S113262013C06F81788589859A858CD5DC01CB01AF
S11326309E838D838D819E819A83898389819A81EA
S11326400197F1F79A838983FE01ED5AFF4F808148
S11326509181009709F47ECEFE01ED5AFF4F01905F
S1132660F081E02D0995FE01E95BFF4F8083FE01B7
S1132670E95BFF4F8081813029F4E1E06696EFAF9A
S113268066970BC0FE01E95BFF4F8081823009F041
S113269061CEF3E06696FFAF669766968FAD669758
S11326A0CB5ADF4F0FB6F894DEBF0FBECDBFCF912C
S11326B0DF911F910F9108950F931F93DF93CF9391
S11326C000D000D00F92CDB7DEB79B838A836C8392
S11326D0809142028A3010F01D828DC080914202A6
S11326E0082F10E086E090E042D79C01C801880FD3
S11326F0991FFC01EC5BFD4F3183208380914202E2
S1132700882F90E0880F991FFC01EC5BFD4F8081BE
S11327109181009719F48FEF8D836DC080914202EF
S1132720882F90E0880F991FFC01EC5BFD4F01900E
S1132730F081E02D8A819B81918380838091420284
S1132740882F90E0880F991FFC01EC5BFD4F0190EE
S1132750F081E02D8C818283198216C0809142021F
S1132760882F90E0880F991FFC01EC5BFD4F2081BE
S113277031818981882F90E0820F931FFC01339669
S1132780108289818F5F89838981833038F38A81BC
S11327909B81DC0111978A819B81FC0131978081A7
S11327A0482F8C81282F30E081E090E002C0880F10
S11327B0991F2A95E2F7809584238C93EA81FB8103
S11327C08081482F8C81282F30E081E090E0022E18
S11327D002C0880F991F0A94E2F7842BEA81FB81D7
S11327E08083809142028983809142028F5F80932B
S11327F0420289818D838D810F900F900F900F90ED
S11328000F90CF91DF911F910F910895DF93CF9394
S113281000D0CDB7DEB789838981882F90E0880FF7
S1132820991FFC01EC5BFD4F0190F081E02D2381A9
S11328308981882F90E0880F991FFC01EC5BFD4F84
S11328400190F081E02D8481282B8981882F90E0EC
S1132850880F991FFC01EC5BFD4F0190F081E02D86
S11328608581822B1A82882311F481E08A838A81EC
S11328700F900F90CF91DF910895DF93CF9300D005
S1132880CDB7DEB78A8319828A81882F90E0880FBA
S1132890991FFC01EC5BFD4F0190F081E02D8081DC
S11328A09181FC0132978081282F30E08A81882F22
S11328B090E0880F991FFC01EC5BFD4F0190F081C3
S11328C0E02D8281882F90E0A90102C0559547959B
S11328D08A95E2F7CA018170898389810F900F90EC
S11328E0CF91DF910895EF92FF920F931F93DF939F
S11328F0CF930F92CDB7DEB7809143028F5F809361
S1132900430280914302833010F0109243021982F3
S11329101AC08981882F90E0880F991FFC01EC5B15
S1132920FD4FE080F18080914302082F10E08981FF
S1132930A4DF282FC701800F911FFC013396208349
S113294089818F5F8983909142028981891708F375
S11329500F90CF91DF911F910F91FF90EF90089509
S11329600F931F93DF93CF9300D0CDB7DEB79A8335
S11329708983E0E8F0E01082E1E8F0E089E0808318
S113298008E810E089819A81CC01A0E0B0E0BC01A4
S1132990CD0104D49B01AC0160E876E988E19BE4B5
S11329A069D3DC01CB01BC01CD0120E030E040E083
S11329B05FE3F8D2DC01CB01BC01CD01C3D3DC0160
S11329C0CB01F80191838083EFE6F0E082E080831D
S11329D0AFE5B0E0EFE5F0E0808180688C930F9084
S11329E00F90CF91DF911F910F9108951F920F9235
S11329F00FB60F9200905B000F9211242F933F9318
S1132A004F935F936F937F938F939F93AF93BF93F2
S1132A10EF93FF93DF93CF93CDB7DEB764DFCF910E
S1132A20DF91FF91EF91BF91AF919F918F917F9132
S1132A306F915F914F913F912F910F9000925B00A6
S1132A400F900FBE0F901F901895DF93CF93CDB7C3
S1132A50DEB72E970FB6F894DEBF0FBECDBF88EE5B
S1132A6093E07EDF84E690E095D0E3E3F0E08FEF3F
S1132A70808384E090E00E949B0882E290E067E01B
S1132A801BDE8093620382E290E064E015DE8093B3
S1132A90610382E290E066E00FDE8093600382E2ED
S1132AA090E065E009DE8093630380E090E0AAE7AC
S1132AB0B4E48B879C87AD87BE876B857C858D85C9
S1132AC09E8520E030E44CE155E45CD4DC01CB018C
S1132AD08F839887A987BA876F81788589859A8536
S1132AE020E030E040E85FE3C1D288232CF481E0A9
S1132AF090E09E838D833BC06F81788589859A851C
S1132B0020E03FEF4FE757E439D418163CF56B85C6
S1132B107C858D859E8520E030E040E251E432D40E
S1132B20DC01CB01BC01CD010DD3DC01CB019E83C3
S1132B308D830FC08AEF90E09C838B838B819C8173
S1132B400197F1F79C838B838D819E8101979E83EE
S1132B508D838D819E81009769F713C06F8178857D
S1132B6089859A85EFD2DC01CB019E838D838D818B
S1132B709E819A83898389819A810197F1F79A8347
S1132B8089832E960FB6F894DEBF0FBECDBFCF91CA
S1132B90DF9108952F923F924F925F926F927F92AE
S1132BA08F929F92AF92BF92CF92DF92EF92FF9259
S1132BB00F931F93DF93CF9300D000D0CDB7DEB730
S1132BC09A838983ADE2B0E0EDE2F0E0808188632E
S1132BD08C93E4E9F0E011821082E8E9F0E01182DC
S1132BE01082EAE9F0E011821082ECE9F0E011824F
S1132BF01082E0E9F0E08EEF8083E1E9F0E089E122
S1132C00808386E990E09C838B8389819A811C016F
S1132C104424552466247724430120E836E948E90E
S1132C2050E060E070E080E090E0A22CB32CC42C73
S1132C30D52CE62CF72C082D192D0E946A00222E83
S1132C40332E442E552E662E772E882E992EA22CA6
S1132C50B32CC42CD52CE62CF72C082D192D2A2D99
S1132C603B2D4C2D5D2D6E2D7F2D802F912FD3D29A
S1132C70DC01CB01BC01CD0120E030E040E05FE3AA
S1132C8090D1DC01CB01BC01CD015CD2DC01CB01D4
S1132C90EB81FC81918380830F900F900F900F90B4
S1132CA0CF91DF911F910F91FF90EF90DF90CF9024
S1132CB0BF90AF909F908F907F906F905F904F9058
S1132CC03F902F900895CF92DF92EF92FF920F934F
S1132CD01F93DF93CF930F92CDB7DEB7898389819A
S1132CE08B3F18F48981853A10F488EC89830F2E80
S1132CF0F8E9CF2EDD24F02DE6E9F0E08081918122
S1132D00CC01A0E0B0E0BC01CD0148D2DC01CB0194
S1132D10BC01CD0120E030E04FE753E4ABD1DC014E
S1132D20CB017C018D018981882F90E0AA2797FD32
S1132D30A095BA2FBC01CD0133D29B01AC01C801CF
S1132D40B70120D3DC01CB01BC01CD0120E030E090
S1132D5040E05FE327D1DC01CB01BC01CD01F2D11E
S1132D60DC01CB01F601918380830F90CF91DF9139
S1132D701F910F91FF90EF90DF90CF9008951F92D5
S1132D800F920FB60F9200905B000F9211248F9355
S1132D909F93AF93BF93EF93FF93DF93CF93CDB7FD
S1132DA0DEB7809158028823D9F08091580281506F
S1132DB080935802A6ECB0E080915902882F90E0ED
S1132DC0FC01E05AFD4F80818C93809159028F5F02
S1132DD08093590280915902803411F4109259025F
S1132DE0CF91DF91FF91EF91BF91AF919F918F911F
S1132DF00F9000925B000F900FBE0F901F901895DC
S1132E001F920F920FB60F9200905B000F92112445
S1132E102F938F939F93EF93FF93DF93CF930F920F
S1132E20CDB7DEB7E0ECF0E0808189838981882F1B
S1132E3090E08C7190700097D9F480915A02882F99
S1132E4090E0E6ECF0E02081FC01E056FD4F2083A9
S1132E5080915A028F5F80935A0280915A02803483
S1132E6011F410925A0280915B028F5F80935B028F
S1132E700F90CF91DF91FF91EF919F918F912F91BF
S1132E800F9000925B000F900FBE0F901F9018954B
S1132E901F920F920FB60F9200905B000F921124B5
S1132EA08F939F93AF93BF93EF93FF93DF93CF934E
S1132EB0CDB7DEB780915C028823D9F080915C02A3
S1132EC0815080935C02AEECB0E080915D02882F6B
S1132ED090E0FC01E052FD4F80818C9380915D0273
S1132EE08F5F80935D0280915D02803411F41092B3
S1132EF05D02CF91DF91FF91EF91BF91AF919F91CF
S1132F008F910F9000925B000F900FBE0F901F9057
S1132F1018951F920F920FB60F9200905B000F92BC
S1132F2011242F938F939F93EF93FF93DF93CF936A
S1132F300F92CDB7DEB7E8ECF0E080818983898118
S1132F40882F90E08C7190700097D9F480915E0284
S1132F50882F90E0EEECF0E02081FC01E05EFC4F75
S1132F60208380915E028F5F80935E0280915E0277
S1132F70803411F410925E0280915F028F5F80931F
S1132F805F020F90CF91DF91FF91EF919F918F910D
S1132F902F910F9000925B000F900FBE0F901F9027
S1132FA018955058BB27AA270ED0AEC19FD130F038
S1132FB0A4D120F031F49F3F11F41EF494C10EF417
S1132FC0E095E7FB8AC1E92FB0D180F3BA17620715
S1132FD073078407950718F071F49EF5C8C10EF4C1
S1132FE0E0950B2EBA2FA02D0B01B90190010C0115
S1132FF0CA01A0011124FF27591B99F0593F50F42D
S1133000503E68F11A16F040A22F232F342F442784
S1133010585FF3CF469537952795A795F04053957C
S1133020C9F77EF41F16BA0B620B730B840BBAF04C
S11330309150A1F0FF0FBB1F661F771F881FC2F7B7
S11330400EC0BA0F621F731F841F48F487957795CB
S11330506795B795F7959E3F08F0B3CF9395880F82
S113306008F09927EE0F97958795089512D108F4E3
S113307081E008950CD048C140D140F037D130F000
S113308021F45F3F19F029C1511172C12CC14DD1F6
S113309098F39923C9F35523B1F3951B550BBB271B
S11330A0AA2762177307840738F09F5F5F4F220FC8
S11330B0331F441FAA1FA9F333D00E2E3AF0E0E8C1
S11330C030D091505040E695001CCAF729D0FE2F0D
S11330D027D0660F771F881FBB1F2617370748079F
S11330E0AB07B0E809F0BB0B802DBF01FF27935855
S11330F05F4F2AF09E3F510568F0EFC039C15F3F32
S1133100ECF3983EDCF3869577956795B795F7953C
S11331109F5FC9F7880F911D9695879597F9089534
S1133120E1E0660F771F881FBB1F621773078407D0
S1133130BA0720F0621B730B840BBA0BEE1F88F7DF
S1133140E0950895FAD088F09F5790F0B92F992709
S1133150B751A0F0D1F0660F771F881F991F1AF09E
S1133160BA95C9F712C0B13081F001D1B1E0089528
S1133170FEC0672F782F8827B85F39F0B93FCCF3AA
S1133180869577956795B395D9F73EF49095809594
S1133190709561957F4F8F4F9F4F0895E89409C0B4
S11331A097FB3EF490958095709561957F4F8F4F76
S11331B09F4F9923A9F0F92F96E9BB279395F6958C
S11331C0879577956795B795F111F8CFFAF4BB0F0A
S11331D011F460FF1BC06F5F7F4F8F4F9F4F16C06E
S11331E0882311F096E911C0772321F09EE8872FF8
S11331F0762F05C0662371F096E8862F70E060E0B4
S11332002AF09A95660F771F881FDAF7880F96952C
S1133210879597F90895E894F92F96EBFF2381F0A9
S1133220121613061406440B9395F6958795779515
S1133230679557954040FF23B9F71BC09927089518
S1133240882351F49850D2F7872B762F652F542F6B
S1133250432F322F20E0B1F3121613061406440B49
S113326088233AF09A95440F551F661F771F881FCD
S1133270CAF755234AF4440F551F11F460FF04C0E4
S11332806F5F7F4F8F4F9F4F880F9695879597F964
S11332900895990F0008550FAA0BE0E8FEEF1616E3
S11332A01706E807F907C0F012161306E407F50736
S11332B098F0621B730B840B950B39F40A2661F0AA
S11332C0232B242B252B21F408950A2609F4A1404D
S11332D0A6958FEF811D811D089597F99F6780E85A
S11332E070E060E008959FEF80EC089500240A9454
S11332F01616170618060906089500240A941216CD
S11333001306140605060895092E0394000C11F4FF
S1133310882352F0BB0F40F4BF2B11F460FF04C0AC
S11333206F5F7F4F8F4F9F4F089557FD9058440F05
S1133330551F59F05F3F71F04795880F97FB991F10
S113334061F09F3F79F087950895121613061406CD
S1133350551FF2CF4695F1DF08C01616170618065A
S1133360991FF1CF86957105610508940895E89435
S1133370BB2766277727CB0197F908958ADF08F4DE
S11333808FEF08950BD0C0CFB1DF28F0B6DF18F06F
S1133390952309F0A2CFA7CF1124EACFC6DFA0F36B
S11333A0959FD1F3950F50E0551F629FF001729FD6
S11333B0BB27F00DB11D639FAA27F00DB11DAA1FF5
S11333C0649F6627B00DA11D661F829F2227B00D42
S11333D0A11D621F739FB00DA11D621F839FA00DCD
S11333E0611D221F749F3327A00D611D231F849F1D
S11333F0600D211D822F762F6A2F11249F57504074
S11334008AF0E1F088234AF0EE0FFF1FBB1F661F0E
S1133410771F881F91505040A9F79E3F510570F0C7
S11334205CCFA6CF5F3FECF3983EDCF386957795AF
S11334306795B795F795E7959F5FC1F7FE2B880FC2
S1133440911D9695879597F90895629FD001739F72
S1133450F001829FE00DF11D649FE00DF11D929F2C
S1133460F00D839FF00D749FF00D659FF00D99276B
S1133470729FB00DE11DF91F639FB00DE11DF91F8F
S1133480BD01CF0111240895A1E21A2EAA1BBB1B72
S1133490FD010DC0AA1FBB1FEE1FFF1FA217B3071C
S11334A0E407F50720F0A21BB30BE40BF50B661F32
S11334B0771F881F991F1A9469F7609570958095F6
S11334C090959B01AC01BD01CF0108952F923F92CD
S11334D04F925F926F927F928F929F92AF92BF9220
S11334E0CF92DF92EF92FF920F931F93CF93DF93CC
S11334F0CDB7DEB7CA1BDB0B0FB6F894DEBF0FBE29
S1133500CDBF09942A88398848885F846E847D8475
S11335108C849B84AA84B984C884DF80EE80FD8077
S11335200C811B81AA81B981CE0FD11D0FB6F894ED
S1133530DEBF0FBECDBFED0108950F931F93CF9350
S1133540DF93689F8001699F100D789F100D1124EF
S1133550C8010DD0EC01009721F060E070E0A801F3
S11335600BD1CE01DF91CF911F910F910895CF938D
S1133570DF93BC018230910510F462E070E0A09109
S11335806603B0916703ED01E0E0F0E040E050E055
S113359021C0888199818617970769F48A819B8164
S11335A0309719F09383828304C0909367038093C8
S11335B06603FE0134C06817790738F441155105D4
S11335C019F08417950708F4AC01FE018A819B81E8
S11335D09C01E9012097E9F641155105A9F1CA01B9
S11335E0861B970B049708F4BA01E0E0F0E02AC0C8
S11335F08D919C91119784179507F9F464177507B9
S113360081F412968D919C911397309719F09383BE
S1133610828304C09093670380936603FD0132960E
S11336204FC0CA01861B970BFD01E80FF91F619378
S1133630719302978D939C9343C0FD018281938182
S11336409C01D9011097A1F68091640390916503C0
S1133650892B41F4809102029091030290936503B7
S11336608093640340910402509105024115510571
S113367041F44DB75EB78091000290910102481B5E
S1133680590B209164033091650324173507B0F476
S1133690CA01821B930B8617970780F0AB014E5F1C
S11336A05F4F8417950750F0420F531F50936503E3
S11336B040936403F9016193719302C0E0E0F0E088
S11336C0CF01DF91CF910895CF93DF93009709F451
S11336D050C0EC0122971B821A82A0916603B0911C
S11336E06703109709F140E050E0AC17BD0708F1FB
S11336F0BB83AA83FE0121913191E20FF31FAE1720
S1133700BF0779F48D919C911197280F391F2E5F73
S11337103F4F3983288312968D919C9113979B83F5
S11337208A834115510571F4D0936703C0936603EE
S113373020C012968D919C911397AD01009711F0C2
S1133740DC01D3CFFA01D383C28321913191E20FFB
S1133750F31FCE17DF0769F488819981280F391F79
S11337602E5F3F4FFA01318320838A819B819383AB
S11337708283DF91CF910895DC0101C06D934150A4
S10D37805040E0F70895F894FFCFDD
S113378A00010202030303030404040404040404FA
S113379A05050505050505050505050505050505CB
S11337AA06060606060606060606060606060606AB
S11337BA060606060606060606060606060606069B
S11337CA070707070707070707070707070707077B
S11337DA070707070707070707070707070707076B
S11337EA070707070707070707070707070707075B
S11337FA070707070707070707070707070707074B
S113380A080808080808080808080808080808082A
S113381A080808080808080808080808080808081A
S113382A080808080808080808080808080808080A
S113383A08080808080808080808080808080808FA
S113384A08080808080808080808080808080808EA
S113385A08080808080808080808080808080808DA
S113386A08080808080808080808080808080808CA
S113387A08080808080808080808080808080808BA
S113388A20006803000024FF5A650A12FD28DC0997
S9030000FC
